{
  "_format": "hh-sol-artifact-1",
  "contractName": "FederatedLearning",
  "sourceName": "contracts/FederatedLearning.sol",
  "abi": [
    {
      "inputs": [],
      "stateMutability": "nonpayable",
      "type": "constructor"
    },
    {
      "anonymous": false,
      "inputs": [
        {
          "indexed": false,
          "internalType": "uint256",
          "name": "roundId",
          "type": "uint256"
        },
        {
          "indexed": false,
          "internalType": "string",
          "name": "uri",
          "type": "string"
        }
      ],
      "name": "AggregatedStored",
      "type": "event"
    },
    {
      "anonymous": false,
      "inputs": [
        {
          "indexed": false,
          "internalType": "uint256",
          "name": "roundId",
          "type": "uint256"
        }
      ],
      "name": "RoundClosed",
      "type": "event"
    },
    {
      "anonymous": false,
      "inputs": [
        {
          "indexed": false,
          "internalType": "uint256",
          "name": "roundId",
          "type": "uint256"
        },
        {
          "indexed": false,
          "internalType": "string",
          "name": "uri",
          "type": "string"
        }
      ],
      "name": "RoundStarted",
      "type": "event"
    },
    {
      "anonymous": false,
      "inputs": [
        {
          "indexed": false,
          "internalType": "uint256",
          "name": "roundId",
          "type": "uint256"
        },
        {
          "indexed": false,
          "internalType": "address",
          "name": "client",
          "type": "address"
        }
      ],
      "name": "UpdateSubmitted",
      "type": "event"
    },
    {
      "inputs": [
        {
          "internalType": "uint256",
          "name": "roundId",
          "type": "uint256"
        }
      ],
      "name": "closeRound",
      "outputs": [],
      "stateMutability": "nonpayable",
      "type": "function"
    },
    {
      "inputs": [],
      "name": "currentRound",
      "outputs": [
        {
          "internalType": "uint256",
          "name": "",
          "type": "uint256"
        }
      ],
      "stateMutability": "view",
      "type": "function"
    },
    {
      "inputs": [
        {
          "internalType": "uint256",
          "name": "roundId",
          "type": "uint256"
        },
        {
          "internalType": "uint256",
          "name": "index",
          "type": "uint256"
        }
      ],
      "name": "getUpdate",
      "outputs": [
        {
          "internalType": "address",
          "name": "",
          "type": "address"
        },
        {
          "internalType": "string",
          "name": "",
          "type": "string"
        },
        {
          "internalType": "string",
          "name": "",
          "type": "string"
        },
        {
          "internalType": "uint256",
          "name": "",
          "type": "uint256"
        }
      ],
      "stateMutability": "view",
      "type": "function"
    },
    {
      "inputs": [
        {
          "internalType": "uint256",
          "name": "roundId",
          "type": "uint256"
        }
      ],
      "name": "getUpdateCount",
      "outputs": [
        {
          "internalType": "uint256",
          "name": "",
          "type": "uint256"
        }
      ],
      "stateMutability": "view",
      "type": "function"
    },
    {
      "inputs": [],
      "name": "owner",
      "outputs": [
        {
          "internalType": "address",
          "name": "",
          "type": "address"
        }
      ],
      "stateMutability": "view",
      "type": "function"
    },
    {
      "inputs": [
        {
          "internalType": "uint256",
          "name": "",
          "type": "uint256"
        }
      ],
      "name": "rounds",
      "outputs": [
        {
          "internalType": "uint256",
          "name": "roundId",
          "type": "uint256"
        },
        {
          "internalType": "string",
          "name": "globalModelUri",
          "type": "string"
        },
        {
          "internalType": "string",
          "name": "globalModelHash",
          "type": "string"
        },
        {
          "internalType": "bool",
          "name": "collecting",
          "type": "bool"
        },
        {
          "internalType": "bool",
          "name": "aggregatedStored",
          "type": "bool"
        }
      ],
      "stateMutability": "view",
      "type": "function"
    },
    {
      "inputs": [
        {
          "internalType": "uint256",
          "name": "roundId",
          "type": "uint256"
        },
        {
          "internalType": "string",
          "name": "uri",
          "type": "string"
        },
        {
          "internalType": "string",
          "name": "hash",
          "type": "string"
        }
      ],
      "name": "startRound",
      "outputs": [],
      "stateMutability": "nonpayable",
      "type": "function"
    },
    {
      "inputs": [
        {
          "internalType": "uint256",
          "name": "roundId",
          "type": "uint256"
        },
        {
          "internalType": "string",
          "name": "uri",
          "type": "string"
        },
        {
          "internalType": "string",
          "name": "hash",
          "type": "string"
        }
      ],
      "name": "storeAggregated",
      "outputs": [],
      "stateMutability": "nonpayable",
      "type": "function"
    },
    {
      "inputs": [
        {
          "internalType": "uint256",
          "name": "roundId",
          "type": "uint256"
        },
        {
          "internalType": "string",
          "name": "uri",
          "type": "string"
        },
        {
          "internalType": "string",
          "name": "hash",
          "type": "string"
        },
        {
          "internalType": "uint256",
          "name": "dataSize",
          "type": "uint256"
        }
      ],
      "name": "submitUpdate",
      "outputs": [],
      "stateMutability": "nonpayable",
      "type": "function"
    }
  ],
  "bytecode": "0x608060405234801561001057600080fd5b50336000806101000a81548173ffffffffffffffffffffffffffffffffffffffff021916908373ffffffffffffffffffffffffffffffffffffffff1602179055506000600181905550611399806100686000396000f3fe608060405234801561001057600080fd5b50600436106100935760003560e01c80638a19c8bc116100665780638a19c8bc146101335780638c65c81f146101515780638da5cb5b14610185578063a3ca69f3146101a3578063fef9da2a146101bf57610093565b80633d3377f4146100985780635bf94267146100c85780636e771eb3146100e457806388e01a9814610117575b600080fd5b6100b260048036038101906100ad9190610a74565b6101db565b6040516100bf9190610ab0565b60405180910390f35b6100e260048036038101906100dd9190610c11565b6101fe565b005b6100fe60048036038101906100f99190610cb0565b610395565b60405161010e9493929190610db0565b60405180910390f35b610131600480360381019061012c9190610a74565b610531565b005b61013b610628565b6040516101489190610ab0565b60405180910390f35b61016b60048036038101906101669190610a74565b61062e565b60405161017c959493929190610e1e565b60405180910390f35b61018d61078e565b60405161019a9190610e7f565b60405180910390f35b6101bd60048036038101906101b89190610e9a565b6107b2565b005b6101d960048036038101906101d49190610e9a565b6108f5565b005b600060026000838152602001908152602001600020600401805490509050919050565b6002600085815260200190815260200160002060030160009054906101000a900460ff16610261576040517f08c379a000000000000000000000000000000000000000000000000000000000815260040161025890610f71565b60405180910390fd5b6002600085815260200190815260200160002060040160405180608001604052803373ffffffffffffffffffffffffffffffffffffffff16815260200185815260200184815260200183815250908060018154018082558091505060019003906000526020600020906004020160009091909190915060008201518160000160006101000a81548173ffffffffffffffffffffffffffffffffffffffff021916908373ffffffffffffffffffffffffffffffffffffffff1602179055506020820151816001019081610333919061119d565b506040820151816002019081610349919061119d565b506060820151816003015550507f5f21e7d3e51cce0acfbf009d11d38f41fa790820522d4431369b71747b142f0e843360405161038792919061126f565b60405180910390a150505050565b60006060806000806002600088815260200190815260200160002060040186815481106103c5576103c4611298565b5b906000526020600020906004020190508060000160009054906101000a900473ffffffffffffffffffffffffffffffffffffffff168160010182600201836003015482805461041390610fc0565b80601f016020809104026020016040519081016040528092919081815260200182805461043f90610fc0565b801561048c5780601f106104615761010080835404028352916020019161048c565b820191906000526020600020905b81548152906001019060200180831161046f57829003601f168201915b5050505050925081805461049f90610fc0565b80601f01602080910402602001604051908101604052809291908181526020018280546104cb90610fc0565b80156105185780601f106104ed57610100808354040283529160200191610518565b820191906000526020600020905b8154815290600101906020018083116104fb57829003601f168201915b5050505050915094509450945094505092959194509250565b60008054906101000a900473ffffffffffffffffffffffffffffffffffffffff1673ffffffffffffffffffffffffffffffffffffffff163373ffffffffffffffffffffffffffffffffffffffff16146105bf576040517f08c379a00000000000000000000000000000000000000000000000000000000081526004016105b690611313565b60405180910390fd5b60006002600083815260200190815260200160002060030160006101000a81548160ff0219169083151502179055507fe9f7d7fd0b133404f0ccff737d6f3594748e04bc5507adfaed35835ef98937118160405161061d9190610ab0565b60405180910390a150565b60015481565b600260205280600052604060002060009150905080600001549080600101805461065790610fc0565b80601f016020809104026020016040519081016040528092919081815260200182805461068390610fc0565b80156106d05780601f106106a5576101008083540402835291602001916106d0565b820191906000526020600020905b8154815290600101906020018083116106b357829003601f168201915b5050505050908060020180546106e590610fc0565b80601f016020809104026020016040519081016040528092919081815260200182805461071190610fc0565b801561075e5780601f106107335761010080835404028352916020019161075e565b820191906000526020600020905b81548152906001019060200180831161074157829003601f168201915b5050505050908060030160009054906101000a900460ff16908060030160019054906101000a900460ff16905085565b60008054906101000a900473ffffffffffffffffffffffffffffffffffffffff1681565b60008054906101000a900473ffffffffffffffffffffffffffffffffffffffff1673ffffffffffffffffffffffffffffffffffffffff163373ffffffffffffffffffffffffffffffffffffffff1614610840576040517f08c379a000000000000000000000000000000000000000000000000000000000815260040161083790611313565b60405180910390fd5b81600260008581526020019081526020016000206001019081610863919061119d565b5080600260008581526020019081526020016000206002019081610887919061119d565b5060016002600085815260200190815260200160002060030160016101000a81548160ff0219169083151502179055507f9a25f538db3b000a5bd8e76788651907e746150bb693f17406942a3f852be8b383836040516108e8929190611333565b60405180910390a1505050565b60008054906101000a900473ffffffffffffffffffffffffffffffffffffffff1673ffffffffffffffffffffffffffffffffffffffff163373ffffffffffffffffffffffffffffffffffffffff1614610983576040517f08c379a000000000000000000000000000000000000000000000000000000000815260040161097a90611313565b60405180910390fd5b6000600260008581526020019081526020016000209050838160000181905550828160010190816109b4919061119d565b50818160020190816109c6919061119d565b5060018160030160006101000a81548160ff021916908315150217905550836001819055507fd2e502e39a194cfd3f9bec599905238739d14dec11ff7f2db47eb6ff290e03e98484604051610a1c929190611333565b60405180910390a150505050565b6000604051905090565b600080fd5b600080fd5b6000819050919050565b610a5181610a3e565b8114610a5c57600080fd5b50565b600081359050610a6e81610a48565b92915050565b600060208284031215610a8a57610a89610a34565b5b6000610a9884828501610a5f565b91505092915050565b610aaa81610a3e565b82525050565b6000602082019050610ac56000830184610aa1565b92915050565b600080fd5b600080fd5b6000601f19601f8301169050919050565b7f4e487b7100000000000000000000000000000000000000000000000000000000600052604160045260246000fd5b610b1e82610ad5565b810181811067ffffffffffffffff82111715610b3d57610b3c610ae6565b5b80604052505050565b6000610b50610a2a565b9050610b5c8282610b15565b919050565b600067ffffffffffffffff821115610b7c57610b7b610ae6565b5b610b8582610ad5565b9050602081019050919050565b82818337600083830152505050565b6000610bb4610baf84610b61565b610b46565b905082815260208101848484011115610bd057610bcf610ad0565b5b610bdb848285610b92565b509392505050565b600082601f830112610bf857610bf7610acb565b5b8135610c08848260208601610ba1565b91505092915050565b60008060008060808587031215610c2b57610c2a610a34565b5b6000610c3987828801610a5f565b945050602085013567ffffffffffffffff811115610c5a57610c59610a39565b5b610c6687828801610be3565b935050604085013567ffffffffffffffff811115610c8757610c86610a39565b5b610c9387828801610be3565b9250506060610ca487828801610a5f565b91505092959194509250565b60008060408385031215610cc757610cc6610a34565b5b6000610cd585828601610a5f565b9250506020610ce685828601610a5f565b9150509250929050565b600073ffffffffffffffffffffffffffffffffffffffff82169050919050565b6000610d1b82610cf0565b9050919050565b610d2b81610d10565b82525050565b600081519050919050565b600082825260208201905092915050565b60005b83811015610d6b578082015181840152602081019050610d50565b60008484015250505050565b6000610d8282610d31565b610d8c8185610d3c565b9350610d9c818560208601610d4d565b610da581610ad5565b840191505092915050565b6000608082019050610dc56000830187610d22565b8181036020830152610dd78186610d77565b90508181036040830152610deb8185610d77565b9050610dfa6060830184610aa1565b95945050505050565b60008115159050919050565b610e1881610e03565b82525050565b600060a082019050610e336000830188610aa1565b8181036020830152610e458187610d77565b90508181036040830152610e598186610d77565b9050610e686060830185610e0f565b610e756080830184610e0f565b9695505050505050565b6000602082019050610e946000830184610d22565b92915050565b600080600060608486031215610eb357610eb2610a34565b5b6000610ec186828701610a5f565b935050602084013567ffffffffffffffff811115610ee257610ee1610a39565b5b610eee86828701610be3565b925050604084013567ffffffffffffffff811115610f0f57610f0e610a39565b5b610f1b86828701610be3565b9150509250925092565b7f526f756e6420636c6f7365640000000000000000000000000000000000000000600082015250565b6000610f5b600c83610d3c565b9150610f6682610f25565b602082019050919050565b60006020820190508181036000830152610f8a81610f4e565b9050919050565b7f4e487b7100000000000000000000000000000000000000000000000000000000600052602260045260246000fd5b60006002820490506001821680610fd857607f821691505b602082108103610feb57610fea610f91565b5b50919050565b60008190508160005260206000209050919050565b60006020601f8301049050919050565b600082821b905092915050565b6000600883026110537fffffffffffffffffffffffffffffffffffffffffffffffffffffffffffffffff82611016565b61105d8683611016565b95508019841693508086168417925050509392505050565b6000819050919050565b600061109a61109561109084610a3e565b611075565b610a3e565b9050919050565b6000819050919050565b6110b48361107f565b6110c86110c0826110a1565b848454611023565b825550505050565b600090565b6110dd6110d0565b6110e88184846110ab565b505050565b5b8181101561110c576111016000826110d5565b6001810190506110ee565b5050565b601f8211156111515761112281610ff1565b61112b84611006565b8101602085101561113a578190505b61114e61114685611006565b8301826110ed565b50505b505050565b600082821c905092915050565b600061117460001984600802611156565b1980831691505092915050565b600061118d8383611163565b9150826002028217905092915050565b6111a682610d31565b67ffffffffffffffff8111156111bf576111be610ae6565b5b6111c98254610fc0565b6111d4828285611110565b600060209050601f83116001811461120757600084156111f5578287015190505b6111ff8582611181565b865550611267565b601f19841661121586610ff1565b60005b8281101561123d57848901518255600182019150602085019450602081019050611218565b8683101561125a5784890151611256601f891682611163565b8355505b6001600288020188555050505b505050505050565b60006040820190506112846000830185610aa1565b6112916020830184610d22565b9392505050565b7f4e487b7100000000000000000000000000000000000000000000000000000000600052603260045260246000fd5b7f4e6f74206f776e65720000000000000000000000000000000000000000000000600082015250565b60006112fd600983610d3c565b9150611308826112c7565b602082019050919050565b6000602082019050818103600083015261132c816112f0565b9050919050565b60006040820190506113486000830185610aa1565b818103602083015261135a8184610d77565b9050939250505056fea26469706673582212202db8bc5dbb7945d240d19a36d89b030ec10387f6edd11ddcd439f46eff40c12c64736f6c63430008140033",
  "linkReferences": {},
  "deployedLinkReferences": {}
}