{
  "_format": "hh-sol-artifact-1",
  "contractName": "FederatedLearning",
  "sourceName": "contracts/FederatedLearning.sol",
  "abi": [
    {
      "inputs": [],
      "stateMutability": "nonpayable",
      "type": "constructor"
    },
    {
      "anonymous": false,
      "inputs": [
        {
          "indexed": false,
          "internalType": "uint256",
          "name": "roundId",
          "type": "uint256"
        },
        {
          "indexed": false,
          "internalType": "string",
          "name": "uri",
          "type": "string"
        }
      ],
      "name": "AggregatedStored",
      "type": "event"
    },
    {
      "anonymous": false,
      "inputs": [
        {
          "indexed": false,
          "internalType": "uint256",
          "name": "roundId",
          "type": "uint256"
        }
      ],
      "name": "RoundClosed",
      "type": "event"
    },
    {
      "anonymous": false,
      "inputs": [
        {
          "indexed": false,
          "internalType": "uint256",
          "name": "roundId",
          "type": "uint256"
        },
        {
          "indexed": false,
          "internalType": "string",
          "name": "uri",
          "type": "string"
        }
      ],
      "name": "RoundStarted",
      "type": "event"
    },
    {
      "anonymous": false,
      "inputs": [
        {
          "indexed": false,
          "internalType": "uint256",
          "name": "roundId",
          "type": "uint256"
        },
        {
          "indexed": false,
          "internalType": "address",
          "name": "client",
          "type": "address"
        }
      ],
      "name": "UpdateSubmitted",
      "type": "event"
    },
    {
      "inputs": [
        {
          "internalType": "uint256",
          "name": "roundId",
          "type": "uint256"
        }
      ],
      "name": "closeRound",
      "outputs": [],
      "stateMutability": "nonpayable",
      "type": "function"
    },
    {
      "inputs": [
        {
          "internalType": "uint256",
          "name": "roundId",
          "type": "uint256"
        },
        {
          "internalType": "uint256",
          "name": "index",
          "type": "uint256"
        }
      ],
      "name": "getUpdate",
      "outputs": [
        {
          "internalType": "address",
          "name": "",
          "type": "address"
        },
        {
          "internalType": "string",
          "name": "",
          "type": "string"
        },
        {
          "internalType": "string",
          "name": "",
          "type": "string"
        },
        {
          "internalType": "uint256",
          "name": "",
          "type": "uint256"
        }
      ],
      "stateMutability": "view",
      "type": "function"
    },
    {
      "inputs": [
        {
          "internalType": "uint256",
          "name": "roundId",
          "type": "uint256"
        }
      ],
      "name": "getUpdateCount",
      "outputs": [
        {
          "internalType": "uint256",
          "name": "",
          "type": "uint256"
        }
      ],
      "stateMutability": "view",
      "type": "function"
    },
    {
      "inputs": [],
      "name": "owner",
      "outputs": [
        {
          "internalType": "address",
          "name": "",
          "type": "address"
        }
      ],
      "stateMutability": "view",
      "type": "function"
    },
    {
      "inputs": [
        {
          "internalType": "uint256",
          "name": "",
          "type": "uint256"
        }
      ],
      "name": "rounds",
      "outputs": [
        {
          "internalType": "uint256",
          "name": "roundId",
          "type": "uint256"
        },
        {
          "internalType": "string",
          "name": "globalModelUri",
          "type": "string"
        },
        {
          "internalType": "string",
          "name": "globalModelHash",
          "type": "string"
        },
        {
          "internalType": "bool",
          "name": "collecting",
          "type": "bool"
        },
        {
          "internalType": "bool",
          "name": "aggregatedStored",
          "type": "bool"
        }
      ],
      "stateMutability": "view",
      "type": "function"
    },
    {
      "inputs": [
        {
          "internalType": "uint256",
          "name": "roundId",
          "type": "uint256"
        },
        {
          "internalType": "string",
          "name": "uri",
          "type": "string"
        },
        {
          "internalType": "string",
          "name": "hash",
          "type": "string"
        }
      ],
      "name": "startRound",
      "outputs": [],
      "stateMutability": "nonpayable",
      "type": "function"
    },
    {
      "inputs": [
        {
          "internalType": "uint256",
          "name": "roundId",
          "type": "uint256"
        },
        {
          "internalType": "string",
          "name": "uri",
          "type": "string"
        },
        {
          "internalType": "string",
          "name": "hash",
          "type": "string"
        }
      ],
      "name": "storeAggregated",
      "outputs": [],
      "stateMutability": "nonpayable",
      "type": "function"
    },
    {
      "inputs": [
        {
          "internalType": "uint256",
          "name": "roundId",
          "type": "uint256"
        },
        {
          "internalType": "string",
          "name": "uri",
          "type": "string"
        },
        {
          "internalType": "string",
          "name": "hash",
          "type": "string"
        },
        {
          "internalType": "uint256",
          "name": "dataSize",
          "type": "uint256"
        }
      ],
      "name": "submitUpdate",
      "outputs": [],
      "stateMutability": "nonpayable",
      "type": "function"
    }
  ],
  "bytecode": "0x608060405234801561001057600080fd5b50336000806101000a81548173ffffffffffffffffffffffffffffffffffffffff021916908373ffffffffffffffffffffffffffffffffffffffff160217905550611254806100606000396000f3fe608060405234801561001057600080fd5b50600436106100885760003560e01c80638c65c81f1161005b5780638c65c81f146101285780638da5cb5b1461015c578063a3ca69f31461017a578063fef9da2a1461019657610088565b80633d3377f41461008d5780635bf94267146100bd5780636e771eb3146100d957806388e01a981461010c575b600080fd5b6100a760048036038101906100a2919061099b565b6101b2565b6040516100b491906109d7565b60405180910390f35b6100d760048036038101906100d29190610b38565b6101d5565b005b6100f360048036038101906100ee9190610bd7565b61036c565b6040516101039493929190610cd7565b60405180910390f35b6101266004803603810190610121919061099b565b610508565b005b610142600480360381019061013d919061099b565b6105c9565b604051610153959493929190610d45565b60405180910390f35b610164610729565b6040516101719190610da6565b60405180910390f35b610194600480360381019061018f9190610dc1565b61074d565b005b6101b060048036038101906101ab9190610dc1565b610859565b005b600060016000838152602001908152602001600020600401805490509050919050565b6001600085815260200190815260200160002060030160009054906101000a900460ff16610238576040517f08c379a000000000000000000000000000000000000000000000000000000000815260040161022f90610e98565b60405180910390fd5b6001600085815260200190815260200160002060040160405180608001604052803373ffffffffffffffffffffffffffffffffffffffff16815260200185815260200184815260200183815250908060018154018082558091505060019003906000526020600020906004020160009091909190915060008201518160000160006101000a81548173ffffffffffffffffffffffffffffffffffffffff021916908373ffffffffffffffffffffffffffffffffffffffff160217905550602082015181600101908161030a91906110c4565b50604082015181600201908161032091906110c4565b506060820151816003015550507f5f21e7d3e51cce0acfbf009d11d38f41fa790820522d4431369b71747b142f0e843360405161035e929190611196565b60405180910390a150505050565b600060608060008060016000888152602001908152602001600020600401868154811061039c5761039b6111bf565b5b906000526020600020906004020190508060000160009054906101000a900473ffffffffffffffffffffffffffffffffffffffff16816001018260020183600301548280546103ea90610ee7565b80601f016020809104026020016040519081016040528092919081815260200182805461041690610ee7565b80156104635780601f1061043857610100808354040283529160200191610463565b820191906000526020600020905b81548152906001019060200180831161044657829003601f168201915b5050505050925081805461047690610ee7565b80601f01602080910402602001604051908101604052809291908181526020018280546104a290610ee7565b80156104ef5780601f106104c4576101008083540402835291602001916104ef565b820191906000526020600020905b8154815290600101906020018083116104d257829003601f168201915b5050505050915094509450945094505092959194509250565b60008054906101000a900473ffffffffffffffffffffffffffffffffffffffff1673ffffffffffffffffffffffffffffffffffffffff163373ffffffffffffffffffffffffffffffffffffffff161461056057600080fd5b60006001600083815260200190815260200160002060030160006101000a81548160ff0219169083151502179055507fe9f7d7fd0b133404f0ccff737d6f3594748e04bc5507adfaed35835ef9893711816040516105be91906109d7565b60405180910390a150565b60016020528060005260406000206000915090508060000154908060010180546105f290610ee7565b80601f016020809104026020016040519081016040528092919081815260200182805461061e90610ee7565b801561066b5780601f106106405761010080835404028352916020019161066b565b820191906000526020600020905b81548152906001019060200180831161064e57829003601f168201915b50505050509080600201805461068090610ee7565b80601f01602080910402602001604051908101604052809291908181526020018280546106ac90610ee7565b80156106f95780601f106106ce576101008083540402835291602001916106f9565b820191906000526020600020905b8154815290600101906020018083116106dc57829003601f168201915b5050505050908060030160009054906101000a900460ff16908060030160019054906101000a900460ff16905085565b60008054906101000a900473ffffffffffffffffffffffffffffffffffffffff1681565b60008054906101000a900473ffffffffffffffffffffffffffffffffffffffff1673ffffffffffffffffffffffffffffffffffffffff163373ffffffffffffffffffffffffffffffffffffffff16146107a557600080fd5b816001600085815260200190815260200160002060010190816107c891906110c4565b50806001600085815260200190815260200160002060020190816107ec91906110c4565b50600180600085815260200190815260200160002060030160016101000a81548160ff0219169083151502179055507f9a25f538db3b000a5bd8e76788651907e746150bb693f17406942a3f852be8b3838360405161084c9291906111ee565b60405180910390a1505050565b60008054906101000a900473ffffffffffffffffffffffffffffffffffffffff1673ffffffffffffffffffffffffffffffffffffffff163373ffffffffffffffffffffffffffffffffffffffff16146108b157600080fd5b6000600160008581526020019081526020016000209050838160000181905550828160010190816108e291906110c4565b50818160020190816108f491906110c4565b5060018160030160006101000a81548160ff0219169083151502179055507fd2e502e39a194cfd3f9bec599905238739d14dec11ff7f2db47eb6ff290e03e984846040516109439291906111ee565b60405180910390a150505050565b6000604051905090565b600080fd5b600080fd5b6000819050919050565b61097881610965565b811461098357600080fd5b50565b6000813590506109958161096f565b92915050565b6000602082840312156109b1576109b061095b565b5b60006109bf84828501610986565b91505092915050565b6109d181610965565b82525050565b60006020820190506109ec60008301846109c8565b92915050565b600080fd5b600080fd5b6000601f19601f8301169050919050565b7f4e487b7100000000000000000000000000000000000000000000000000000000600052604160045260246000fd5b610a45826109fc565b810181811067ffffffffffffffff82111715610a6457610a63610a0d565b5b80604052505050565b6000610a77610951565b9050610a838282610a3c565b919050565b600067ffffffffffffffff821115610aa357610aa2610a0d565b5b610aac826109fc565b9050602081019050919050565b82818337600083830152505050565b6000610adb610ad684610a88565b610a6d565b905082815260208101848484011115610af757610af66109f7565b5b610b02848285610ab9565b509392505050565b600082601f830112610b1f57610b1e6109f2565b5b8135610b2f848260208601610ac8565b91505092915050565b60008060008060808587031215610b5257610b5161095b565b5b6000610b6087828801610986565b945050602085013567ffffffffffffffff811115610b8157610b80610960565b5b610b8d87828801610b0a565b935050604085013567ffffffffffffffff811115610bae57610bad610960565b5b610bba87828801610b0a565b9250506060610bcb87828801610986565b91505092959194509250565b60008060408385031215610bee57610bed61095b565b5b6000610bfc85828601610986565b9250506020610c0d85828601610986565b9150509250929050565b600073ffffffffffffffffffffffffffffffffffffffff82169050919050565b6000610c4282610c17565b9050919050565b610c5281610c37565b82525050565b600081519050919050565b600082825260208201905092915050565b60005b83811015610c92578082015181840152602081019050610c77565b60008484015250505050565b6000610ca982610c58565b610cb38185610c63565b9350610cc3818560208601610c74565b610ccc816109fc565b840191505092915050565b6000608082019050610cec6000830187610c49565b8181036020830152610cfe8186610c9e565b90508181036040830152610d128185610c9e565b9050610d2160608301846109c8565b95945050505050565b60008115159050919050565b610d3f81610d2a565b82525050565b600060a082019050610d5a60008301886109c8565b8181036020830152610d6c8187610c9e565b90508181036040830152610d808186610c9e565b9050610d8f6060830185610d36565b610d9c6080830184610d36565b9695505050505050565b6000602082019050610dbb6000830184610c49565b92915050565b600080600060608486031215610dda57610dd961095b565b5b6000610de886828701610986565b935050602084013567ffffffffffffffff811115610e0957610e08610960565b5b610e1586828701610b0a565b925050604084013567ffffffffffffffff811115610e3657610e35610960565b5b610e4286828701610b0a565b9150509250925092565b7f526f756e6420636c6f7365640000000000000000000000000000000000000000600082015250565b6000610e82600c83610c63565b9150610e8d82610e4c565b602082019050919050565b60006020820190508181036000830152610eb181610e75565b9050919050565b7f4e487b7100000000000000000000000000000000000000000000000000000000600052602260045260246000fd5b60006002820490506001821680610eff57607f821691505b602082108103610f1257610f11610eb8565b5b50919050565b60008190508160005260206000209050919050565b60006020601f8301049050919050565b600082821b905092915050565b600060088302610f7a7fffffffffffffffffffffffffffffffffffffffffffffffffffffffffffffffff82610f3d565b610f848683610f3d565b95508019841693508086168417925050509392505050565b6000819050919050565b6000610fc1610fbc610fb784610965565b610f9c565b610965565b9050919050565b6000819050919050565b610fdb83610fa6565b610fef610fe782610fc8565b848454610f4a565b825550505050565b600090565b611004610ff7565b61100f818484610fd2565b505050565b5b8181101561103357611028600082610ffc565b600181019050611015565b5050565b601f8211156110785761104981610f18565b61105284610f2d565b81016020851015611061578190505b61107561106d85610f2d565b830182611014565b50505b505050565b600082821c905092915050565b600061109b6000198460080261107d565b1980831691505092915050565b60006110b4838361108a565b9150826002028217905092915050565b6110cd82610c58565b67ffffffffffffffff8111156110e6576110e5610a0d565b5b6110f08254610ee7565b6110fb828285611037565b600060209050601f83116001811461112e576000841561111c578287015190505b61112685826110a8565b86555061118e565b601f19841661113c86610f18565b60005b828110156111645784890151825560018201915060208501945060208101905061113f565b86831015611181578489015161117d601f89168261108a565b8355505b6001600288020188555050505b505050505050565b60006040820190506111ab60008301856109c8565b6111b86020830184610c49565b9392505050565b7f4e487b7100000000000000000000000000000000000000000000000000000000600052603260045260246000fd5b600060408201905061120360008301856109c8565b81810360208301526112158184610c9e565b9050939250505056fea2646970667358221220fc6ef2d61ba6fbcd93fb7b53c4b766fc37ec5da3f4594c6dc1a644ff66b3b65464736f6c63430008140033",
  "linkReferences": {},
  "deployedLinkReferences": {}
}