{
  "_format": "hh-sol-artifact-1",
  "contractName": "FederatedLearning",
  "sourceName": "contracts/FederatedLearning.sol",
  "abi": [
    {
      "inputs": [],
      "stateMutability": "nonpayable",
      "type": "constructor"
    },
    {
      "anonymous": false,
      "inputs": [
        {
          "indexed": false,
          "internalType": "uint256",
          "name": "roundId",
          "type": "uint256"
        },
        {
          "indexed": false,
          "internalType": "string",
          "name": "uri",
          "type": "string"
        }
      ],
      "name": "AggregatedStored",
      "type": "event"
    },
    {
      "anonymous": false,
      "inputs": [
        {
          "indexed": false,
          "internalType": "uint256",
          "name": "roundId",
          "type": "uint256"
        }
      ],
      "name": "RoundClosed",
      "type": "event"
    },
    {
      "anonymous": false,
      "inputs": [
        {
          "indexed": false,
          "internalType": "uint256",
          "name": "roundId",
          "type": "uint256"
        },
        {
          "indexed": false,
          "internalType": "string",
          "name": "uri",
          "type": "string"
        }
      ],
      "name": "RoundStarted",
      "type": "event"
    },
    {
      "anonymous": false,
      "inputs": [
        {
          "indexed": false,
          "internalType": "uint256",
          "name": "roundId",
          "type": "uint256"
        },
        {
          "indexed": false,
          "internalType": "address",
          "name": "client",
          "type": "address"
        }
      ],
      "name": "UpdateSubmitted",
      "type": "event"
    },
    {
      "inputs": [
        {
          "internalType": "uint256",
          "name": "roundId",
          "type": "uint256"
        }
      ],
      "name": "closeRound",
      "outputs": [],
      "stateMutability": "nonpayable",
      "type": "function"
    },
    {
      "inputs": [],
      "name": "currentRound",
      "outputs": [
        {
          "internalType": "uint256",
          "name": "",
          "type": "uint256"
        }
      ],
      "stateMutability": "view",
      "type": "function"
    },
    {
      "inputs": [
        {
          "internalType": "uint256",
          "name": "roundId",
          "type": "uint256"
        }
      ],
      "name": "getRoundClients",
      "outputs": [
        {
          "internalType": "address[]",
          "name": "",
          "type": "address[]"
        }
      ],
      "stateMutability": "view",
      "type": "function"
    },
    {
      "inputs": [
        {
          "internalType": "uint256",
          "name": "roundId",
          "type": "uint256"
        },
        {
          "internalType": "uint256",
          "name": "index",
          "type": "uint256"
        }
      ],
      "name": "getUpdate",
      "outputs": [
        {
          "internalType": "address",
          "name": "",
          "type": "address"
        },
        {
          "internalType": "string",
          "name": "",
          "type": "string"
        },
        {
          "internalType": "string",
          "name": "",
          "type": "string"
        },
        {
          "internalType": "uint256",
          "name": "",
          "type": "uint256"
        }
      ],
      "stateMutability": "view",
      "type": "function"
    },
    {
      "inputs": [
        {
          "internalType": "uint256",
          "name": "roundId",
          "type": "uint256"
        }
      ],
      "name": "getUpdateCount",
      "outputs": [
        {
          "internalType": "uint256",
          "name": "",
          "type": "uint256"
        }
      ],
      "stateMutability": "view",
      "type": "function"
    },
    {
      "inputs": [],
      "name": "owner",
      "outputs": [
        {
          "internalType": "address",
          "name": "",
          "type": "address"
        }
      ],
      "stateMutability": "view",
      "type": "function"
    },
    {
      "inputs": [
        {
          "internalType": "uint256",
          "name": "",
          "type": "uint256"
        },
        {
          "internalType": "uint256",
          "name": "",
          "type": "uint256"
        }
      ],
      "name": "roundClients",
      "outputs": [
        {
          "internalType": "address",
          "name": "",
          "type": "address"
        }
      ],
      "stateMutability": "view",
      "type": "function"
    },
    {
      "inputs": [
        {
          "internalType": "uint256",
          "name": "",
          "type": "uint256"
        }
      ],
      "name": "rounds",
      "outputs": [
        {
          "internalType": "uint256",
          "name": "roundId",
          "type": "uint256"
        },
        {
          "internalType": "string",
          "name": "globalModelUri",
          "type": "string"
        },
        {
          "internalType": "string",
          "name": "globalModelHash",
          "type": "string"
        },
        {
          "internalType": "bool",
          "name": "collecting",
          "type": "bool"
        },
        {
          "internalType": "bool",
          "name": "aggregatedStored",
          "type": "bool"
        }
      ],
      "stateMutability": "view",
      "type": "function"
    },
    {
      "inputs": [
        {
          "internalType": "uint256",
          "name": "roundId",
          "type": "uint256"
        },
        {
          "internalType": "string",
          "name": "uri",
          "type": "string"
        },
        {
          "internalType": "string",
          "name": "hash",
          "type": "string"
        }
      ],
      "name": "startRound",
      "outputs": [],
      "stateMutability": "nonpayable",
      "type": "function"
    },
    {
      "inputs": [
        {
          "internalType": "uint256",
          "name": "roundId",
          "type": "uint256"
        },
        {
          "internalType": "string",
          "name": "uri",
          "type": "string"
        },
        {
          "internalType": "string",
          "name": "hash",
          "type": "string"
        }
      ],
      "name": "storeAggregated",
      "outputs": [],
      "stateMutability": "nonpayable",
      "type": "function"
    },
    {
      "inputs": [
        {
          "internalType": "uint256",
          "name": "roundId",
          "type": "uint256"
        },
        {
          "internalType": "string",
          "name": "uri",
          "type": "string"
        },
        {
          "internalType": "string",
          "name": "hash",
          "type": "string"
        },
        {
          "internalType": "uint256",
          "name": "dataSize",
          "type": "uint256"
        }
      ],
      "name": "submitUpdate",
      "outputs": [],
      "stateMutability": "nonpayable",
      "type": "function"
    }
  ],
  "bytecode": "0x608060405234801561001057600080fd5b50336000806101000a81548173ffffffffffffffffffffffffffffffffffffffff021916908373ffffffffffffffffffffffffffffffffffffffff160217905550600060018190555061166f806100686000396000f3fe608060405234801561001057600080fd5b50600436106100a95760003560e01c80638a19c8bc116100715780638a19c8bc146101795780638c65c81f146101975780638da5cb5b146101cb5780639cdd1380146101e9578063a3ca69f314610219578063fef9da2a14610235576100a9565b80633d3377f4146100ae5780635bf94267146100de5780636e771eb3146100fa57806382bf881b1461012d57806388e01a981461015d575b600080fd5b6100c860048036038101906100c39190610c6a565b610251565b6040516100d59190610ca6565b60405180910390f35b6100f860048036038101906100f39190610e07565b610274565b005b610114600480360381019061010f9190610ea6565b61047f565b6040516101249493929190610fa6565b60405180910390f35b61014760048036038101906101429190610ea6565b61061b565b6040516101549190610ff9565b60405180910390f35b61017760048036038101906101729190610c6a565b610669565b005b610181610760565b60405161018e9190610ca6565b60405180910390f35b6101b160048036038101906101ac9190610c6a565b610766565b6040516101c295949392919061102f565b60405180910390f35b6101d36108c6565b6040516101e09190610ff9565b60405180910390f35b61020360048036038101906101fe9190610c6a565b6108ea565b604051610210919061114e565b60405180910390f35b610233600480360381019061022e9190611170565b61098b565b005b61024f600480360381019061024a9190611170565b610ace565b005b600060026000838152602001908152602001600020600401805490509050919050565b6002600085815260200190815260200160002060030160009054906101000a900460ff166102d7576040517f08c379a00000000000000000000000000000000000000000000000000000000081526004016102ce90611247565b60405180910390fd5b6002600085815260200190815260200160002060040160405180608001604052803373ffffffffffffffffffffffffffffffffffffffff16815260200185815260200184815260200183815250908060018154018082558091505060019003906000526020600020906004020160009091909190915060008201518160000160006101000a81548173ffffffffffffffffffffffffffffffffffffffff021916908373ffffffffffffffffffffffffffffffffffffffff16021790555060208201518160010190816103a99190611473565b5060408201518160020190816103bf9190611473565b5060608201518160030155505060036000858152602001908152602001600020339080600181540180825580915050600190039060005260206000200160009091909190916101000a81548173ffffffffffffffffffffffffffffffffffffffff021916908373ffffffffffffffffffffffffffffffffffffffff1602179055507f5f21e7d3e51cce0acfbf009d11d38f41fa790820522d4431369b71747b142f0e8433604051610471929190611545565b60405180910390a150505050565b60006060806000806002600088815260200190815260200160002060040186815481106104af576104ae61156e565b5b906000526020600020906004020190508060000160009054906101000a900473ffffffffffffffffffffffffffffffffffffffff16816001018260020183600301548280546104fd90611296565b80601f016020809104026020016040519081016040528092919081815260200182805461052990611296565b80156105765780601f1061054b57610100808354040283529160200191610576565b820191906000526020600020905b81548152906001019060200180831161055957829003601f168201915b5050505050925081805461058990611296565b80601f01602080910402602001604051908101604052809291908181526020018280546105b590611296565b80156106025780601f106105d757610100808354040283529160200191610602565b820191906000526020600020905b8154815290600101906020018083116105e557829003601f168201915b5050505050915094509450945094505092959194509250565b6003602052816000526040600020818154811061063757600080fd5b906000526020600020016000915091509054906101000a900473ffffffffffffffffffffffffffffffffffffffff1681565b60008054906101000a900473ffffffffffffffffffffffffffffffffffffffff1673ffffffffffffffffffffffffffffffffffffffff163373ffffffffffffffffffffffffffffffffffffffff16146106f7576040517f08c379a00000000000000000000000000000000000000000000000000000000081526004016106ee906115e9565b60405180910390fd5b60006002600083815260200190815260200160002060030160006101000a81548160ff0219169083151502179055507fe9f7d7fd0b133404f0ccff737d6f3594748e04bc5507adfaed35835ef9893711816040516107559190610ca6565b60405180910390a150565b60015481565b600260205280600052604060002060009150905080600001549080600101805461078f90611296565b80601f01602080910402602001604051908101604052809291908181526020018280546107bb90611296565b80156108085780601f106107dd57610100808354040283529160200191610808565b820191906000526020600020905b8154815290600101906020018083116107eb57829003601f168201915b50505050509080600201805461081d90611296565b80601f016020809104026020016040519081016040528092919081815260200182805461084990611296565b80156108965780601f1061086b57610100808354040283529160200191610896565b820191906000526020600020905b81548152906001019060200180831161087957829003601f168201915b5050505050908060030160009054906101000a900460ff16908060030160019054906101000a900460ff16905085565b60008054906101000a900473ffffffffffffffffffffffffffffffffffffffff1681565b60606003600083815260200190815260200160002080548060200260200160405190810160405280929190818152602001828054801561097f57602002820191906000526020600020905b8160009054906101000a900473ffffffffffffffffffffffffffffffffffffffff1673ffffffffffffffffffffffffffffffffffffffff1681526020019060010190808311610935575b50505050509050919050565b60008054906101000a900473ffffffffffffffffffffffffffffffffffffffff1673ffffffffffffffffffffffffffffffffffffffff163373ffffffffffffffffffffffffffffffffffffffff1614610a19576040517f08c379a0000000000000000000000000000000000000000000000000000000008152600401610a10906115e9565b60405180910390fd5b81600260008581526020019081526020016000206001019081610a3c9190611473565b5080600260008581526020019081526020016000206002019081610a609190611473565b5060016002600085815260200190815260200160002060030160016101000a81548160ff0219169083151502179055507f9a25f538db3b000a5bd8e76788651907e746150bb693f17406942a3f852be8b38383604051610ac1929190611609565b60405180910390a1505050565b60008054906101000a900473ffffffffffffffffffffffffffffffffffffffff1673ffffffffffffffffffffffffffffffffffffffff163373ffffffffffffffffffffffffffffffffffffffff1614610b5c576040517f08c379a0000000000000000000000000000000000000000000000000000000008152600401610b53906115e9565b60405180910390fd5b600060026000858152602001908152602001600020905083816000018190555082816001019081610b8d9190611473565b5081816002019081610b9f9190611473565b5060018160030160006101000a81548160ff02191690831515021790555060008160030160016101000a81548160ff021916908315150217905550836001819055507fd2e502e39a194cfd3f9bec599905238739d14dec11ff7f2db47eb6ff290e03e98484604051610c12929190611609565b60405180910390a150505050565b6000604051905090565b600080fd5b600080fd5b6000819050919050565b610c4781610c34565b8114610c5257600080fd5b50565b600081359050610c6481610c3e565b92915050565b600060208284031215610c8057610c7f610c2a565b5b6000610c8e84828501610c55565b91505092915050565b610ca081610c34565b82525050565b6000602082019050610cbb6000830184610c97565b92915050565b600080fd5b600080fd5b6000601f19601f8301169050919050565b7f4e487b7100000000000000000000000000000000000000000000000000000000600052604160045260246000fd5b610d1482610ccb565b810181811067ffffffffffffffff82111715610d3357610d32610cdc565b5b80604052505050565b6000610d46610c20565b9050610d528282610d0b565b919050565b600067ffffffffffffffff821115610d7257610d71610cdc565b5b610d7b82610ccb565b9050602081019050919050565b82818337600083830152505050565b6000610daa610da584610d57565b610d3c565b905082815260208101848484011115610dc657610dc5610cc6565b5b610dd1848285610d88565b509392505050565b600082601f830112610dee57610ded610cc1565b5b8135610dfe848260208601610d97565b91505092915050565b60008060008060808587031215610e2157610e20610c2a565b5b6000610e2f87828801610c55565b945050602085013567ffffffffffffffff811115610e5057610e4f610c2f565b5b610e5c87828801610dd9565b935050604085013567ffffffffffffffff811115610e7d57610e7c610c2f565b5b610e8987828801610dd9565b9250506060610e9a87828801610c55565b91505092959194509250565b60008060408385031215610ebd57610ebc610c2a565b5b6000610ecb85828601610c55565b9250506020610edc85828601610c55565b9150509250929050565b600073ffffffffffffffffffffffffffffffffffffffff82169050919050565b6000610f1182610ee6565b9050919050565b610f2181610f06565b82525050565b600081519050919050565b600082825260208201905092915050565b60005b83811015610f61578082015181840152602081019050610f46565b60008484015250505050565b6000610f7882610f27565b610f828185610f32565b9350610f92818560208601610f43565b610f9b81610ccb565b840191505092915050565b6000608082019050610fbb6000830187610f18565b8181036020830152610fcd8186610f6d565b90508181036040830152610fe18185610f6d565b9050610ff06060830184610c97565b95945050505050565b600060208201905061100e6000830184610f18565b92915050565b60008115159050919050565b61102981611014565b82525050565b600060a0820190506110446000830188610c97565b81810360208301526110568187610f6d565b9050818103604083015261106a8186610f6d565b90506110796060830185611020565b6110866080830184611020565b9695505050505050565b600081519050919050565b600082825260208201905092915050565b6000819050602082019050919050565b6110c581610f06565b82525050565b60006110d783836110bc565b60208301905092915050565b6000602082019050919050565b60006110fb82611090565b611105818561109b565b9350611110836110ac565b8060005b8381101561114157815161112888826110cb565b9750611133836110e3565b925050600181019050611114565b5085935050505092915050565b6000602082019050818103600083015261116881846110f0565b905092915050565b60008060006060848603121561118957611188610c2a565b5b600061119786828701610c55565b935050602084013567ffffffffffffffff8111156111b8576111b7610c2f565b5b6111c486828701610dd9565b925050604084013567ffffffffffffffff8111156111e5576111e4610c2f565b5b6111f186828701610dd9565b9150509250925092565b7f526f756e6420636c6f7365640000000000000000000000000000000000000000600082015250565b6000611231600c83610f32565b915061123c826111fb565b602082019050919050565b6000602082019050818103600083015261126081611224565b9050919050565b7f4e487b7100000000000000000000000000000000000000000000000000000000600052602260045260246000fd5b600060028204905060018216806112ae57607f821691505b6020821081036112c1576112c0611267565b5b50919050565b60008190508160005260206000209050919050565b60006020601f8301049050919050565b600082821b905092915050565b6000600883026113297fffffffffffffffffffffffffffffffffffffffffffffffffffffffffffffffff826112ec565b61133386836112ec565b95508019841693508086168417925050509392505050565b6000819050919050565b600061137061136b61136684610c34565b61134b565b610c34565b9050919050565b6000819050919050565b61138a83611355565b61139e61139682611377565b8484546112f9565b825550505050565b600090565b6113b36113a6565b6113be818484611381565b505050565b5b818110156113e2576113d76000826113ab565b6001810190506113c4565b5050565b601f821115611427576113f8816112c7565b611401846112dc565b81016020851015611410578190505b61142461141c856112dc565b8301826113c3565b50505b505050565b600082821c905092915050565b600061144a6000198460080261142c565b1980831691505092915050565b60006114638383611439565b9150826002028217905092915050565b61147c82610f27565b67ffffffffffffffff81111561149557611494610cdc565b5b61149f8254611296565b6114aa8282856113e6565b600060209050601f8311600181146114dd57600084156114cb578287015190505b6114d58582611457565b86555061153d565b601f1984166114eb866112c7565b60005b82811015611513578489015182556001820191506020850194506020810190506114ee565b86831015611530578489015161152c601f891682611439565b8355505b6001600288020188555050505b505050505050565b600060408201905061155a6000830185610c97565b6115676020830184610f18565b9392505050565b7f4e487b7100000000000000000000000000000000000000000000000000000000600052603260045260246000fd5b7f4e6f74206f776e65720000000000000000000000000000000000000000000000600082015250565b60006115d3600983610f32565b91506115de8261159d565b602082019050919050565b60006020820190508181036000830152611602816115c6565b9050919050565b600060408201905061161e6000830185610c97565b81810360208301526116308184610f6d565b9050939250505056fea26469706673582212201efb468d5388823ff57c3b6eeff24b3d84cf5f061663185a2c10469c31103a6264736f6c63430008140033",
  "linkReferences": {},
  "deployedLinkReferences": {}
}