{"contracts/FederatedLearning.sol":{"FederatedLearning":{"abi":[{"inputs":[],"stateMutability":"nonpayable","type":"constructor"},{"anonymous":false,"inputs":[{"indexed":false,"internalType":"uint256","name":"roundId","type":"uint256"},{"indexed":false,"internalType":"string","name":"uri","type":"string"}],"name":"AggregatedStored","type":"event"},{"anonymous":false,"inputs":[{"indexed":false,"internalType":"uint256","name":"roundId","type":"uint256"}],"name":"RoundClosed","type":"event"},{"anonymous":false,"inputs":[{"indexed":false,"internalType":"uint256","name":"roundId","type":"uint256"},{"indexed":false,"internalType":"string","name":"uri","type":"string"}],"name":"RoundStarted","type":"event"},{"anonymous":false,"inputs":[{"indexed":false,"internalType":"uint256","name":"roundId","type":"uint256"},{"indexed":false,"internalType":"address","name":"client","type":"address"}],"name":"UpdateSubmitted","type":"event"},{"inputs":[{"internalType":"uint256","name":"roundId","type":"uint256"}],"name":"closeRound","outputs":[],"stateMutability":"nonpayable","type":"function"},{"inputs":[{"internalType":"uint256","name":"roundId","type":"uint256"},{"internalType":"uint256","name":"index","type":"uint256"}],"name":"getUpdate","outputs":[{"internalType":"address","name":"","type":"address"},{"internalType":"string","name":"","type":"string"},{"internalType":"string","name":"","type":"string"},{"internalType":"uint256","name":"","type":"uint256"}],"stateMutability":"view","type":"function"},{"inputs":[{"internalType":"uint256","name":"roundId","type":"uint256"}],"name":"getUpdateCount","outputs":[{"internalType":"uint256","name":"","type":"uint256"}],"stateMutability":"view","type":"function"},{"inputs":[],"name":"owner","outputs":[{"internalType":"address","name":"","type":"address"}],"stateMutability":"view","type":"function"},{"inputs":[{"internalType":"uint256","name":"","type":"uint256"}],"name":"rounds","outputs":[{"internalType":"uint256","name":"roundId","type":"uint256"},{"internalType":"string","name":"globalModelUri","type":"string"},{"internalType":"string","name":"globalModelHash","type":"string"},{"internalType":"bool","name":"collecting","type":"bool"},{"internalType":"bool","name":"aggregatedStored","type":"bool"}],"stateMutability":"view","type":"function"},{"inputs":[{"internalType":"uint256","name":"roundId","type":"uint256"},{"internalType":"string","name":"uri","type":"string"},{"internalType":"string","name":"hash","type":"string"}],"name":"startRound","outputs":[],"stateMutability":"nonpayable","type":"function"},{"inputs":[{"internalType":"uint256","name":"roundId","type":"uint256"},{"internalType":"string","name":"uri","type":"string"},{"internalType":"string","name":"hash","type":"string"}],"name":"storeAggregated","outputs":[],"stateMutability":"nonpayable","type":"function"},{"inputs":[{"internalType":"uint256","name":"roundId","type":"uint256"},{"internalType":"string","name":"uri","type":"string"},{"internalType":"string","name":"hash","type":"string"},{"internalType":"uint256","name":"dataSize","type":"uint256"}],"name":"submitUpdate","outputs":[],"stateMutability":"nonpayable","type":"function"}],"evm":{"bytecode":{"linkReferences":{},"object":"608060405234801561001057600080fd5b50336000806101000a81548173ffffffffffffffffffffffffffffffffffffffff021916908373ffffffffffffffffffffffffffffffffffffffff160217905550611254806100606000396000f3fe608060405234801561001057600080fd5b50600436106100885760003560e01c80638c65c81f1161005b5780638c65c81f146101285780638da5cb5b1461015c578063a3ca69f31461017a578063fef9da2a1461019657610088565b80633d3377f41461008d5780635bf94267146100bd5780636e771eb3146100d957806388e01a981461010c575b600080fd5b6100a760048036038101906100a2919061099b565b6101b2565b6040516100b491906109d7565b60405180910390f35b6100d760048036038101906100d29190610b38565b6101d5565b005b6100f360048036038101906100ee9190610bd7565b61036c565b6040516101039493929190610cd7565b60405180910390f35b6101266004803603810190610121919061099b565b610508565b005b610142600480360381019061013d919061099b565b6105c9565b604051610153959493929190610d45565b60405180910390f35b610164610729565b6040516101719190610da6565b60405180910390f35b610194600480360381019061018f9190610dc1565b61074d565b005b6101b060048036038101906101ab9190610dc1565b610859565b005b600060016000838152602001908152602001600020600401805490509050919050565b6001600085815260200190815260200160002060030160009054906101000a900460ff16610238576040517f08c379a000000000000000000000000000000000000000000000000000000000815260040161022f90610e98565b60405180910390fd5b6001600085815260200190815260200160002060040160405180608001604052803373ffffffffffffffffffffffffffffffffffffffff16815260200185815260200184815260200183815250908060018154018082558091505060019003906000526020600020906004020160009091909190915060008201518160000160006101000a81548173ffffffffffffffffffffffffffffffffffffffff021916908373ffffffffffffffffffffffffffffffffffffffff160217905550602082015181600101908161030a91906110c4565b50604082015181600201908161032091906110c4565b506060820151816003015550507f5f21e7d3e51cce0acfbf009d11d38f41fa790820522d4431369b71747b142f0e843360405161035e929190611196565b60405180910390a150505050565b600060608060008060016000888152602001908152602001600020600401868154811061039c5761039b6111bf565b5b906000526020600020906004020190508060000160009054906101000a900473ffffffffffffffffffffffffffffffffffffffff16816001018260020183600301548280546103ea90610ee7565b80601f016020809104026020016040519081016040528092919081815260200182805461041690610ee7565b80156104635780601f1061043857610100808354040283529160200191610463565b820191906000526020600020905b81548152906001019060200180831161044657829003601f168201915b5050505050925081805461047690610ee7565b80601f01602080910402602001604051908101604052809291908181526020018280546104a290610ee7565b80156104ef5780601f106104c4576101008083540402835291602001916104ef565b820191906000526020600020905b8154815290600101906020018083116104d257829003601f168201915b5050505050915094509450945094505092959194509250565b60008054906101000a900473ffffffffffffffffffffffffffffffffffffffff1673ffffffffffffffffffffffffffffffffffffffff163373ffffffffffffffffffffffffffffffffffffffff161461056057600080fd5b60006001600083815260200190815260200160002060030160006101000a81548160ff0219169083151502179055507fe9f7d7fd0b133404f0ccff737d6f3594748e04bc5507adfaed35835ef9893711816040516105be91906109d7565b60405180910390a150565b60016020528060005260406000206000915090508060000154908060010180546105f290610ee7565b80601f016020809104026020016040519081016040528092919081815260200182805461061e90610ee7565b801561066b5780601f106106405761010080835404028352916020019161066b565b820191906000526020600020905b81548152906001019060200180831161064e57829003601f168201915b50505050509080600201805461068090610ee7565b80601f01602080910402602001604051908101604052809291908181526020018280546106ac90610ee7565b80156106f95780601f106106ce576101008083540402835291602001916106f9565b820191906000526020600020905b8154815290600101906020018083116106dc57829003601f168201915b5050505050908060030160009054906101000a900460ff16908060030160019054906101000a900460ff16905085565b60008054906101000a900473ffffffffffffffffffffffffffffffffffffffff1681565b60008054906101000a900473ffffffffffffffffffffffffffffffffffffffff1673ffffffffffffffffffffffffffffffffffffffff163373ffffffffffffffffffffffffffffffffffffffff16146107a557600080fd5b816001600085815260200190815260200160002060010190816107c891906110c4565b50806001600085815260200190815260200160002060020190816107ec91906110c4565b50600180600085815260200190815260200160002060030160016101000a81548160ff0219169083151502179055507f9a25f538db3b000a5bd8e76788651907e746150bb693f17406942a3f852be8b3838360405161084c9291906111ee565b60405180910390a1505050565b60008054906101000a900473ffffffffffffffffffffffffffffffffffffffff1673ffffffffffffffffffffffffffffffffffffffff163373ffffffffffffffffffffffffffffffffffffffff16146108b157600080fd5b6000600160008581526020019081526020016000209050838160000181905550828160010190816108e291906110c4565b50818160020190816108f491906110c4565b5060018160030160006101000a81548160ff0219169083151502179055507fd2e502e39a194cfd3f9bec599905238739d14dec11ff7f2db47eb6ff290e03e984846040516109439291906111ee565b60405180910390a150505050565b6000604051905090565b600080fd5b600080fd5b6000819050919050565b61097881610965565b811461098357600080fd5b50565b6000813590506109958161096f565b92915050565b6000602082840312156109b1576109b061095b565b5b60006109bf84828501610986565b91505092915050565b6109d181610965565b82525050565b60006020820190506109ec60008301846109c8565b92915050565b600080fd5b600080fd5b6000601f19601f8301169050919050565b7f4e487b7100000000000000000000000000000000000000000000000000000000600052604160045260246000fd5b610a45826109fc565b810181811067ffffffffffffffff82111715610a6457610a63610a0d565b5b80604052505050565b6000610a77610951565b9050610a838282610a3c565b919050565b600067ffffffffffffffff821115610aa357610aa2610a0d565b5b610aac826109fc565b9050602081019050919050565b82818337600083830152505050565b6000610adb610ad684610a88565b610a6d565b905082815260208101848484011115610af757610af66109f7565b5b610b02848285610ab9565b509392505050565b600082601f830112610b1f57610b1e6109f2565b5b8135610b2f848260208601610ac8565b91505092915050565b60008060008060808587031215610b5257610b5161095b565b5b6000610b6087828801610986565b945050602085013567ffffffffffffffff811115610b8157610b80610960565b5b610b8d87828801610b0a565b935050604085013567ffffffffffffffff811115610bae57610bad610960565b5b610bba87828801610b0a565b9250506060610bcb87828801610986565b91505092959194509250565b60008060408385031215610bee57610bed61095b565b5b6000610bfc85828601610986565b9250506020610c0d85828601610986565b9150509250929050565b600073ffffffffffffffffffffffffffffffffffffffff82169050919050565b6000610c4282610c17565b9050919050565b610c5281610c37565b82525050565b600081519050919050565b600082825260208201905092915050565b60005b83811015610c92578082015181840152602081019050610c77565b60008484015250505050565b6000610ca982610c58565b610cb38185610c63565b9350610cc3818560208601610c74565b610ccc816109fc565b840191505092915050565b6000608082019050610cec6000830187610c49565b8181036020830152610cfe8186610c9e565b90508181036040830152610d128185610c9e565b9050610d2160608301846109c8565b95945050505050565b60008115159050919050565b610d3f81610d2a565b82525050565b600060a082019050610d5a60008301886109c8565b8181036020830152610d6c8187610c9e565b90508181036040830152610d808186610c9e565b9050610d8f6060830185610d36565b610d9c6080830184610d36565b9695505050505050565b6000602082019050610dbb6000830184610c49565b92915050565b600080600060608486031215610dda57610dd961095b565b5b6000610de886828701610986565b935050602084013567ffffffffffffffff811115610e0957610e08610960565b5b610e1586828701610b0a565b925050604084013567ffffffffffffffff811115610e3657610e35610960565b5b610e4286828701610b0a565b9150509250925092565b7f526f756e6420636c6f7365640000000000000000000000000000000000000000600082015250565b6000610e82600c83610c63565b9150610e8d82610e4c565b602082019050919050565b60006020820190508181036000830152610eb181610e75565b9050919050565b7f4e487b7100000000000000000000000000000000000000000000000000000000600052602260045260246000fd5b60006002820490506001821680610eff57607f821691505b602082108103610f1257610f11610eb8565b5b50919050565b60008190508160005260206000209050919050565b60006020601f8301049050919050565b600082821b905092915050565b600060088302610f7a7fffffffffffffffffffffffffffffffffffffffffffffffffffffffffffffffff82610f3d565b610f848683610f3d565b95508019841693508086168417925050509392505050565b6000819050919050565b6000610fc1610fbc610fb784610965565b610f9c565b610965565b9050919050565b6000819050919050565b610fdb83610fa6565b610fef610fe782610fc8565b848454610f4a565b825550505050565b600090565b611004610ff7565b61100f818484610fd2565b505050565b5b8181101561103357611028600082610ffc565b600181019050611015565b5050565b601f8211156110785761104981610f18565b61105284610f2d565b81016020851015611061578190505b61107561106d85610f2d565b830182611014565b50505b505050565b600082821c905092915050565b600061109b6000198460080261107d565b1980831691505092915050565b60006110b4838361108a565b9150826002028217905092915050565b6110cd82610c58565b67ffffffffffffffff8111156110e6576110e5610a0d565b5b6110f08254610ee7565b6110fb828285611037565b600060209050601f83116001811461112e576000841561111c578287015190505b61112685826110a8565b86555061118e565b601f19841661113c86610f18565b60005b828110156111645784890151825560018201915060208501945060208101905061113f565b86831015611181578489015161117d601f89168261108a565b8355505b6001600288020188555050505b505050505050565b60006040820190506111ab60008301856109c8565b6111b86020830184610c49565b9392505050565b7f4e487b7100000000000000000000000000000000000000000000000000000000600052603260045260246000fd5b600060408201905061120360008301856109c8565b81810360208301526112158184610c9e565b9050939250505056fea2646970667358221220fc6ef2d61ba6fbcd93fb7b53c4b766fc37ec5da3f4594c6dc1a644ff66b3b65464736f6c63430008140033","opcodes":"PUSH1 0x80 PUSH1 0x40 MSTORE CALLVALUE DUP1 ISZERO PUSH2 0x10 JUMPI PUSH1 0x0 DUP1 REVERT JUMPDEST POP CALLER PUSH1 0x0 DUP1 PUSH2 0x100 EXP DUP2 SLOAD DUP2 PUSH20 0xFFFFFFFFFFFFFFFFFFFFFFFFFFFFFFFFFFFFFFFF MUL NOT AND SWAP1 DUP4 PUSH20 0xFFFFFFFFFFFFFFFFFFFFFFFFFFFFFFFFFFFFFFFF AND MUL OR SWAP1 SSTORE POP PUSH2 0x1254 DUP1 PUSH2 0x60 PUSH1 0x0 CODECOPY PUSH1 0x0 RETURN INVALID PUSH1 0x80 PUSH1 0x40 MSTORE CALLVALUE DUP1 ISZERO PUSH2 0x10 JUMPI PUSH1 0x0 DUP1 REVERT JUMPDEST POP PUSH1 0x4 CALLDATASIZE LT PUSH2 0x88 JUMPI PUSH1 0x0 CALLDATALOAD PUSH1 0xE0 SHR DUP1 PUSH4 0x8C65C81F GT PUSH2 0x5B JUMPI DUP1 PUSH4 0x8C65C81F EQ PUSH2 0x128 JUMPI DUP1 PUSH4 0x8DA5CB5B EQ PUSH2 0x15C JUMPI DUP1 PUSH4 0xA3CA69F3 EQ PUSH2 0x17A JUMPI DUP1 PUSH4 0xFEF9DA2A EQ PUSH2 0x196 JUMPI PUSH2 0x88 JUMP JUMPDEST DUP1 PUSH4 0x3D3377F4 EQ PUSH2 0x8D JUMPI DUP1 PUSH4 0x5BF94267 EQ PUSH2 0xBD JUMPI DUP1 PUSH4 0x6E771EB3 EQ PUSH2 0xD9 JUMPI DUP1 PUSH4 0x88E01A98 EQ PUSH2 0x10C JUMPI JUMPDEST PUSH1 0x0 DUP1 REVERT JUMPDEST PUSH2 0xA7 PUSH1 0x4 DUP1 CALLDATASIZE SUB DUP2 ADD SWAP1 PUSH2 0xA2 SWAP2 SWAP1 PUSH2 0x99B JUMP JUMPDEST PUSH2 0x1B2 JUMP JUMPDEST PUSH1 0x40 MLOAD PUSH2 0xB4 SWAP2 SWAP1 PUSH2 0x9D7 JUMP JUMPDEST PUSH1 0x40 MLOAD DUP1 SWAP2 SUB SWAP1 RETURN JUMPDEST PUSH2 0xD7 PUSH1 0x4 DUP1 CALLDATASIZE SUB DUP2 ADD SWAP1 PUSH2 0xD2 SWAP2 SWAP1 PUSH2 0xB38 JUMP JUMPDEST PUSH2 0x1D5 JUMP JUMPDEST STOP JUMPDEST PUSH2 0xF3 PUSH1 0x4 DUP1 CALLDATASIZE SUB DUP2 ADD SWAP1 PUSH2 0xEE SWAP2 SWAP1 PUSH2 0xBD7 JUMP JUMPDEST PUSH2 0x36C JUMP JUMPDEST PUSH1 0x40 MLOAD PUSH2 0x103 SWAP5 SWAP4 SWAP3 SWAP2 SWAP1 PUSH2 0xCD7 JUMP JUMPDEST PUSH1 0x40 MLOAD DUP1 SWAP2 SUB SWAP1 RETURN JUMPDEST PUSH2 0x126 PUSH1 0x4 DUP1 CALLDATASIZE SUB DUP2 ADD SWAP1 PUSH2 0x121 SWAP2 SWAP1 PUSH2 0x99B JUMP JUMPDEST PUSH2 0x508 JUMP JUMPDEST STOP JUMPDEST PUSH2 0x142 PUSH1 0x4 DUP1 CALLDATASIZE SUB DUP2 ADD SWAP1 PUSH2 0x13D SWAP2 SWAP1 PUSH2 0x99B JUMP JUMPDEST PUSH2 0x5C9 JUMP JUMPDEST PUSH1 0x40 MLOAD PUSH2 0x153 SWAP6 SWAP5 SWAP4 SWAP3 SWAP2 SWAP1 PUSH2 0xD45 JUMP JUMPDEST PUSH1 0x40 MLOAD DUP1 SWAP2 SUB SWAP1 RETURN JUMPDEST PUSH2 0x164 PUSH2 0x729 JUMP JUMPDEST PUSH1 0x40 MLOAD PUSH2 0x171 SWAP2 SWAP1 PUSH2 0xDA6 JUMP JUMPDEST PUSH1 0x40 MLOAD DUP1 SWAP2 SUB SWAP1 RETURN JUMPDEST PUSH2 0x194 PUSH1 0x4 DUP1 CALLDATASIZE SUB DUP2 ADD SWAP1 PUSH2 0x18F SWAP2 SWAP1 PUSH2 0xDC1 JUMP JUMPDEST PUSH2 0x74D JUMP JUMPDEST STOP JUMPDEST PUSH2 0x1B0 PUSH1 0x4 DUP1 CALLDATASIZE SUB DUP2 ADD SWAP1 PUSH2 0x1AB SWAP2 SWAP1 PUSH2 0xDC1 JUMP JUMPDEST PUSH2 0x859 JUMP JUMPDEST STOP JUMPDEST PUSH1 0x0 PUSH1 0x1 PUSH1 0x0 DUP4 DUP2 MSTORE PUSH1 0x20 ADD SWAP1 DUP2 MSTORE PUSH1 0x20 ADD PUSH1 0x0 KECCAK256 PUSH1 0x4 ADD DUP1 SLOAD SWAP1 POP SWAP1 POP SWAP2 SWAP1 POP JUMP JUMPDEST PUSH1 0x1 PUSH1 0x0 DUP6 DUP2 MSTORE PUSH1 0x20 ADD SWAP1 DUP2 MSTORE PUSH1 0x20 ADD PUSH1 0x0 KECCAK256 PUSH1 0x3 ADD PUSH1 0x0 SWAP1 SLOAD SWAP1 PUSH2 0x100 EXP SWAP1 DIV PUSH1 0xFF AND PUSH2 0x238 JUMPI PUSH1 0x40 MLOAD PUSH32 0x8C379A000000000000000000000000000000000000000000000000000000000 DUP2 MSTORE PUSH1 0x4 ADD PUSH2 0x22F SWAP1 PUSH2 0xE98 JUMP JUMPDEST PUSH1 0x40 MLOAD DUP1 SWAP2 SUB SWAP1 REVERT JUMPDEST PUSH1 0x1 PUSH1 0x0 DUP6 DUP2 MSTORE PUSH1 0x20 ADD SWAP1 DUP2 MSTORE PUSH1 0x20 ADD PUSH1 0x0 KECCAK256 PUSH1 0x4 ADD PUSH1 0x40 MLOAD DUP1 PUSH1 0x80 ADD PUSH1 0x40 MSTORE DUP1 CALLER PUSH20 0xFFFFFFFFFFFFFFFFFFFFFFFFFFFFFFFFFFFFFFFF AND DUP2 MSTORE PUSH1 0x20 ADD DUP6 DUP2 MSTORE PUSH1 0x20 ADD DUP5 DUP2 MSTORE PUSH1 0x20 ADD DUP4 DUP2 MSTORE POP SWAP1 DUP1 PUSH1 0x1 DUP2 SLOAD ADD DUP1 DUP3 SSTORE DUP1 SWAP2 POP POP PUSH1 0x1 SWAP1 SUB SWAP1 PUSH1 0x0 MSTORE PUSH1 0x20 PUSH1 0x0 KECCAK256 SWAP1 PUSH1 0x4 MUL ADD PUSH1 0x0 SWAP1 SWAP2 SWAP1 SWAP2 SWAP1 SWAP2 POP PUSH1 0x0 DUP3 ADD MLOAD DUP2 PUSH1 0x0 ADD PUSH1 0x0 PUSH2 0x100 EXP DUP2 SLOAD DUP2 PUSH20 0xFFFFFFFFFFFFFFFFFFFFFFFFFFFFFFFFFFFFFFFF MUL NOT AND SWAP1 DUP4 PUSH20 0xFFFFFFFFFFFFFFFFFFFFFFFFFFFFFFFFFFFFFFFF AND MUL OR SWAP1 SSTORE POP PUSH1 0x20 DUP3 ADD MLOAD DUP2 PUSH1 0x1 ADD SWAP1 DUP2 PUSH2 0x30A SWAP2 SWAP1 PUSH2 0x10C4 JUMP JUMPDEST POP PUSH1 0x40 DUP3 ADD MLOAD DUP2 PUSH1 0x2 ADD SWAP1 DUP2 PUSH2 0x320 SWAP2 SWAP1 PUSH2 0x10C4 JUMP JUMPDEST POP PUSH1 0x60 DUP3 ADD MLOAD DUP2 PUSH1 0x3 ADD SSTORE POP POP PUSH32 0x5F21E7D3E51CCE0ACFBF009D11D38F41FA790820522D4431369B71747B142F0E DUP5 CALLER PUSH1 0x40 MLOAD PUSH2 0x35E SWAP3 SWAP2 SWAP1 PUSH2 0x1196 JUMP JUMPDEST PUSH1 0x40 MLOAD DUP1 SWAP2 SUB SWAP1 LOG1 POP POP POP POP JUMP JUMPDEST PUSH1 0x0 PUSH1 0x60 DUP1 PUSH1 0x0 DUP1 PUSH1 0x1 PUSH1 0x0 DUP9 DUP2 MSTORE PUSH1 0x20 ADD SWAP1 DUP2 MSTORE PUSH1 0x20 ADD PUSH1 0x0 KECCAK256 PUSH1 0x4 ADD DUP7 DUP2 SLOAD DUP2 LT PUSH2 0x39C JUMPI PUSH2 0x39B PUSH2 0x11BF JUMP JUMPDEST JUMPDEST SWAP1 PUSH1 0x0 MSTORE PUSH1 0x20 PUSH1 0x0 KECCAK256 SWAP1 PUSH1 0x4 MUL ADD SWAP1 POP DUP1 PUSH1 0x0 ADD PUSH1 0x0 SWAP1 SLOAD SWAP1 PUSH2 0x100 EXP SWAP1 DIV PUSH20 0xFFFFFFFFFFFFFFFFFFFFFFFFFFFFFFFFFFFFFFFF AND DUP2 PUSH1 0x1 ADD DUP3 PUSH1 0x2 ADD DUP4 PUSH1 0x3 ADD SLOAD DUP3 DUP1 SLOAD PUSH2 0x3EA SWAP1 PUSH2 0xEE7 JUMP JUMPDEST DUP1 PUSH1 0x1F ADD PUSH1 0x20 DUP1 SWAP2 DIV MUL PUSH1 0x20 ADD PUSH1 0x40 MLOAD SWAP1 DUP2 ADD PUSH1 0x40 MSTORE DUP1 SWAP3 SWAP2 SWAP1 DUP2 DUP2 MSTORE PUSH1 0x20 ADD DUP3 DUP1 SLOAD PUSH2 0x416 SWAP1 PUSH2 0xEE7 JUMP JUMPDEST DUP1 ISZERO PUSH2 0x463 JUMPI DUP1 PUSH1 0x1F LT PUSH2 0x438 JUMPI PUSH2 0x100 DUP1 DUP4 SLOAD DIV MUL DUP4 MSTORE SWAP2 PUSH1 0x20 ADD SWAP2 PUSH2 0x463 JUMP JUMPDEST DUP3 ADD SWAP2 SWAP1 PUSH1 0x0 MSTORE PUSH1 0x20 PUSH1 0x0 KECCAK256 SWAP1 JUMPDEST DUP2 SLOAD DUP2 MSTORE SWAP1 PUSH1 0x1 ADD SWAP1 PUSH1 0x20 ADD DUP1 DUP4 GT PUSH2 0x446 JUMPI DUP3 SWAP1 SUB PUSH1 0x1F AND DUP3 ADD SWAP2 JUMPDEST POP POP POP POP POP SWAP3 POP DUP2 DUP1 SLOAD PUSH2 0x476 SWAP1 PUSH2 0xEE7 JUMP JUMPDEST DUP1 PUSH1 0x1F ADD PUSH1 0x20 DUP1 SWAP2 DIV MUL PUSH1 0x20 ADD PUSH1 0x40 MLOAD SWAP1 DUP2 ADD PUSH1 0x40 MSTORE DUP1 SWAP3 SWAP2 SWAP1 DUP2 DUP2 MSTORE PUSH1 0x20 ADD DUP3 DUP1 SLOAD PUSH2 0x4A2 SWAP1 PUSH2 0xEE7 JUMP JUMPDEST DUP1 ISZERO PUSH2 0x4EF JUMPI DUP1 PUSH1 0x1F LT PUSH2 0x4C4 JUMPI PUSH2 0x100 DUP1 DUP4 SLOAD DIV MUL DUP4 MSTORE SWAP2 PUSH1 0x20 ADD SWAP2 PUSH2 0x4EF JUMP JUMPDEST DUP3 ADD SWAP2 SWAP1 PUSH1 0x0 MSTORE PUSH1 0x20 PUSH1 0x0 KECCAK256 SWAP1 JUMPDEST DUP2 SLOAD DUP2 MSTORE SWAP1 PUSH1 0x1 ADD SWAP1 PUSH1 0x20 ADD DUP1 DUP4 GT PUSH2 0x4D2 JUMPI DUP3 SWAP1 SUB PUSH1 0x1F AND DUP3 ADD SWAP2 JUMPDEST POP POP POP POP POP SWAP2 POP SWAP5 POP SWAP5 POP SWAP5 POP SWAP5 POP POP SWAP3 SWAP6 SWAP2 SWAP5 POP SWAP3 POP JUMP JUMPDEST PUSH1 0x0 DUP1 SLOAD SWAP1 PUSH2 0x100 EXP SWAP1 DIV PUSH20 0xFFFFFFFFFFFFFFFFFFFFFFFFFFFFFFFFFFFFFFFF AND PUSH20 0xFFFFFFFFFFFFFFFFFFFFFFFFFFFFFFFFFFFFFFFF AND CALLER PUSH20 0xFFFFFFFFFFFFFFFFFFFFFFFFFFFFFFFFFFFFFFFF AND EQ PUSH2 0x560 JUMPI PUSH1 0x0 DUP1 REVERT JUMPDEST PUSH1 0x0 PUSH1 0x1 PUSH1 0x0 DUP4 DUP2 MSTORE PUSH1 0x20 ADD SWAP1 DUP2 MSTORE PUSH1 0x20 ADD PUSH1 0x0 KECCAK256 PUSH1 0x3 ADD PUSH1 0x0 PUSH2 0x100 EXP DUP2 SLOAD DUP2 PUSH1 0xFF MUL NOT AND SWAP1 DUP4 ISZERO ISZERO MUL OR SWAP1 SSTORE POP PUSH32 0xE9F7D7FD0B133404F0CCFF737D6F3594748E04BC5507ADFAED35835EF9893711 DUP2 PUSH1 0x40 MLOAD PUSH2 0x5BE SWAP2 SWAP1 PUSH2 0x9D7 JUMP JUMPDEST PUSH1 0x40 MLOAD DUP1 SWAP2 SUB SWAP1 LOG1 POP JUMP JUMPDEST PUSH1 0x1 PUSH1 0x20 MSTORE DUP1 PUSH1 0x0 MSTORE PUSH1 0x40 PUSH1 0x0 KECCAK256 PUSH1 0x0 SWAP2 POP SWAP1 POP DUP1 PUSH1 0x0 ADD SLOAD SWAP1 DUP1 PUSH1 0x1 ADD DUP1 SLOAD PUSH2 0x5F2 SWAP1 PUSH2 0xEE7 JUMP JUMPDEST DUP1 PUSH1 0x1F ADD PUSH1 0x20 DUP1 SWAP2 DIV MUL PUSH1 0x20 ADD PUSH1 0x40 MLOAD SWAP1 DUP2 ADD PUSH1 0x40 MSTORE DUP1 SWAP3 SWAP2 SWAP1 DUP2 DUP2 MSTORE PUSH1 0x20 ADD DUP3 DUP1 SLOAD PUSH2 0x61E SWAP1 PUSH2 0xEE7 JUMP JUMPDEST DUP1 ISZERO PUSH2 0x66B JUMPI DUP1 PUSH1 0x1F LT PUSH2 0x640 JUMPI PUSH2 0x100 DUP1 DUP4 SLOAD DIV MUL DUP4 MSTORE SWAP2 PUSH1 0x20 ADD SWAP2 PUSH2 0x66B JUMP JUMPDEST DUP3 ADD SWAP2 SWAP1 PUSH1 0x0 MSTORE PUSH1 0x20 PUSH1 0x0 KECCAK256 SWAP1 JUMPDEST DUP2 SLOAD DUP2 MSTORE SWAP1 PUSH1 0x1 ADD SWAP1 PUSH1 0x20 ADD DUP1 DUP4 GT PUSH2 0x64E JUMPI DUP3 SWAP1 SUB PUSH1 0x1F AND DUP3 ADD SWAP2 JUMPDEST POP POP POP POP POP SWAP1 DUP1 PUSH1 0x2 ADD DUP1 SLOAD PUSH2 0x680 SWAP1 PUSH2 0xEE7 JUMP JUMPDEST DUP1 PUSH1 0x1F ADD PUSH1 0x20 DUP1 SWAP2 DIV MUL PUSH1 0x20 ADD PUSH1 0x40 MLOAD SWAP1 DUP2 ADD PUSH1 0x40 MSTORE DUP1 SWAP3 SWAP2 SWAP1 DUP2 DUP2 MSTORE PUSH1 0x20 ADD DUP3 DUP1 SLOAD PUSH2 0x6AC SWAP1 PUSH2 0xEE7 JUMP JUMPDEST DUP1 ISZERO PUSH2 0x6F9 JUMPI DUP1 PUSH1 0x1F LT PUSH2 0x6CE JUMPI PUSH2 0x100 DUP1 DUP4 SLOAD DIV MUL DUP4 MSTORE SWAP2 PUSH1 0x20 ADD SWAP2 PUSH2 0x6F9 JUMP JUMPDEST DUP3 ADD SWAP2 SWAP1 PUSH1 0x0 MSTORE PUSH1 0x20 PUSH1 0x0 KECCAK256 SWAP1 JUMPDEST DUP2 SLOAD DUP2 MSTORE SWAP1 PUSH1 0x1 ADD SWAP1 PUSH1 0x20 ADD DUP1 DUP4 GT PUSH2 0x6DC JUMPI DUP3 SWAP1 SUB PUSH1 0x1F AND DUP3 ADD SWAP2 JUMPDEST POP POP POP POP POP SWAP1 DUP1 PUSH1 0x3 ADD PUSH1 0x0 SWAP1 SLOAD SWAP1 PUSH2 0x100 EXP SWAP1 DIV PUSH1 0xFF AND SWAP1 DUP1 PUSH1 0x3 ADD PUSH1 0x1 SWAP1 SLOAD SWAP1 PUSH2 0x100 EXP SWAP1 DIV PUSH1 0xFF AND SWAP1 POP DUP6 JUMP JUMPDEST PUSH1 0x0 DUP1 SLOAD SWAP1 PUSH2 0x100 EXP SWAP1 DIV PUSH20 0xFFFFFFFFFFFFFFFFFFFFFFFFFFFFFFFFFFFFFFFF AND DUP2 JUMP JUMPDEST PUSH1 0x0 DUP1 SLOAD SWAP1 PUSH2 0x100 EXP SWAP1 DIV PUSH20 0xFFFFFFFFFFFFFFFFFFFFFFFFFFFFFFFFFFFFFFFF AND PUSH20 0xFFFFFFFFFFFFFFFFFFFFFFFFFFFFFFFFFFFFFFFF AND CALLER PUSH20 0xFFFFFFFFFFFFFFFFFFFFFFFFFFFFFFFFFFFFFFFF AND EQ PUSH2 0x7A5 JUMPI PUSH1 0x0 DUP1 REVERT JUMPDEST DUP2 PUSH1 0x1 PUSH1 0x0 DUP6 DUP2 MSTORE PUSH1 0x20 ADD SWAP1 DUP2 MSTORE PUSH1 0x20 ADD PUSH1 0x0 KECCAK256 PUSH1 0x1 ADD SWAP1 DUP2 PUSH2 0x7C8 SWAP2 SWAP1 PUSH2 0x10C4 JUMP JUMPDEST POP DUP1 PUSH1 0x1 PUSH1 0x0 DUP6 DUP2 MSTORE PUSH1 0x20 ADD SWAP1 DUP2 MSTORE PUSH1 0x20 ADD PUSH1 0x0 KECCAK256 PUSH1 0x2 ADD SWAP1 DUP2 PUSH2 0x7EC SWAP2 SWAP1 PUSH2 0x10C4 JUMP JUMPDEST POP PUSH1 0x1 DUP1 PUSH1 0x0 DUP6 DUP2 MSTORE PUSH1 0x20 ADD SWAP1 DUP2 MSTORE PUSH1 0x20 ADD PUSH1 0x0 KECCAK256 PUSH1 0x3 ADD PUSH1 0x1 PUSH2 0x100 EXP DUP2 SLOAD DUP2 PUSH1 0xFF MUL NOT AND SWAP1 DUP4 ISZERO ISZERO MUL OR SWAP1 SSTORE POP PUSH32 0x9A25F538DB3B000A5BD8E76788651907E746150BB693F17406942A3F852BE8B3 DUP4 DUP4 PUSH1 0x40 MLOAD PUSH2 0x84C SWAP3 SWAP2 SWAP1 PUSH2 0x11EE JUMP JUMPDEST PUSH1 0x40 MLOAD DUP1 SWAP2 SUB SWAP1 LOG1 POP POP POP JUMP JUMPDEST PUSH1 0x0 DUP1 SLOAD SWAP1 PUSH2 0x100 EXP SWAP1 DIV PUSH20 0xFFFFFFFFFFFFFFFFFFFFFFFFFFFFFFFFFFFFFFFF AND PUSH20 0xFFFFFFFFFFFFFFFFFFFFFFFFFFFFFFFFFFFFFFFF AND CALLER PUSH20 0xFFFFFFFFFFFFFFFFFFFFFFFFFFFFFFFFFFFFFFFF AND EQ PUSH2 0x8B1 JUMPI PUSH1 0x0 DUP1 REVERT JUMPDEST PUSH1 0x0 PUSH1 0x1 PUSH1 0x0 DUP6 DUP2 MSTORE PUSH1 0x20 ADD SWAP1 DUP2 MSTORE PUSH1 0x20 ADD PUSH1 0x0 KECCAK256 SWAP1 POP DUP4 DUP2 PUSH1 0x0 ADD DUP2 SWAP1 SSTORE POP DUP3 DUP2 PUSH1 0x1 ADD SWAP1 DUP2 PUSH2 0x8E2 SWAP2 SWAP1 PUSH2 0x10C4 JUMP JUMPDEST POP DUP2 DUP2 PUSH1 0x2 ADD SWAP1 DUP2 PUSH2 0x8F4 SWAP2 SWAP1 PUSH2 0x10C4 JUMP JUMPDEST POP PUSH1 0x1 DUP2 PUSH1 0x3 ADD PUSH1 0x0 PUSH2 0x100 EXP DUP2 SLOAD DUP2 PUSH1 0xFF MUL NOT AND SWAP1 DUP4 ISZERO ISZERO MUL OR SWAP1 SSTORE POP PUSH32 0xD2E502E39A194CFD3F9BEC599905238739D14DEC11FF7F2DB47EB6FF290E03E9 DUP5 DUP5 PUSH1 0x40 MLOAD PUSH2 0x943 SWAP3 SWAP2 SWAP1 PUSH2 0x11EE JUMP JUMPDEST PUSH1 0x40 MLOAD DUP1 SWAP2 SUB SWAP1 LOG1 POP POP POP POP JUMP JUMPDEST PUSH1 0x0 PUSH1 0x40 MLOAD SWAP1 POP SWAP1 JUMP JUMPDEST PUSH1 0x0 DUP1 REVERT JUMPDEST PUSH1 0x0 DUP1 REVERT JUMPDEST PUSH1 0x0 DUP2 SWAP1 POP SWAP2 SWAP1 POP JUMP JUMPDEST PUSH2 0x978 DUP2 PUSH2 0x965 JUMP JUMPDEST DUP2 EQ PUSH2 0x983 JUMPI PUSH1 0x0 DUP1 REVERT JUMPDEST POP JUMP JUMPDEST PUSH1 0x0 DUP2 CALLDATALOAD SWAP1 POP PUSH2 0x995 DUP2 PUSH2 0x96F JUMP JUMPDEST SWAP3 SWAP2 POP POP JUMP JUMPDEST PUSH1 0x0 PUSH1 0x20 DUP3 DUP5 SUB SLT ISZERO PUSH2 0x9B1 JUMPI PUSH2 0x9B0 PUSH2 0x95B JUMP JUMPDEST JUMPDEST PUSH1 0x0 PUSH2 0x9BF DUP5 DUP3 DUP6 ADD PUSH2 0x986 JUMP JUMPDEST SWAP2 POP POP SWAP3 SWAP2 POP POP JUMP JUMPDEST PUSH2 0x9D1 DUP2 PUSH2 0x965 JUMP JUMPDEST DUP3 MSTORE POP POP JUMP JUMPDEST PUSH1 0x0 PUSH1 0x20 DUP3 ADD SWAP1 POP PUSH2 0x9EC PUSH1 0x0 DUP4 ADD DUP5 PUSH2 0x9C8 JUMP JUMPDEST SWAP3 SWAP2 POP POP JUMP JUMPDEST PUSH1 0x0 DUP1 REVERT JUMPDEST PUSH1 0x0 DUP1 REVERT JUMPDEST PUSH1 0x0 PUSH1 0x1F NOT PUSH1 0x1F DUP4 ADD AND SWAP1 POP SWAP2 SWAP1 POP JUMP JUMPDEST PUSH32 0x4E487B7100000000000000000000000000000000000000000000000000000000 PUSH1 0x0 MSTORE PUSH1 0x41 PUSH1 0x4 MSTORE PUSH1 0x24 PUSH1 0x0 REVERT JUMPDEST PUSH2 0xA45 DUP3 PUSH2 0x9FC JUMP JUMPDEST DUP2 ADD DUP2 DUP2 LT PUSH8 0xFFFFFFFFFFFFFFFF DUP3 GT OR ISZERO PUSH2 0xA64 JUMPI PUSH2 0xA63 PUSH2 0xA0D JUMP JUMPDEST JUMPDEST DUP1 PUSH1 0x40 MSTORE POP POP POP JUMP JUMPDEST PUSH1 0x0 PUSH2 0xA77 PUSH2 0x951 JUMP JUMPDEST SWAP1 POP PUSH2 0xA83 DUP3 DUP3 PUSH2 0xA3C JUMP JUMPDEST SWAP2 SWAP1 POP JUMP JUMPDEST PUSH1 0x0 PUSH8 0xFFFFFFFFFFFFFFFF DUP3 GT ISZERO PUSH2 0xAA3 JUMPI PUSH2 0xAA2 PUSH2 0xA0D JUMP JUMPDEST JUMPDEST PUSH2 0xAAC DUP3 PUSH2 0x9FC JUMP JUMPDEST SWAP1 POP PUSH1 0x20 DUP2 ADD SWAP1 POP SWAP2 SWAP1 POP JUMP JUMPDEST DUP3 DUP2 DUP4 CALLDATACOPY PUSH1 0x0 DUP4 DUP4 ADD MSTORE POP POP POP JUMP JUMPDEST PUSH1 0x0 PUSH2 0xADB PUSH2 0xAD6 DUP5 PUSH2 0xA88 JUMP JUMPDEST PUSH2 0xA6D JUMP JUMPDEST SWAP1 POP DUP3 DUP2 MSTORE PUSH1 0x20 DUP2 ADD DUP5 DUP5 DUP5 ADD GT ISZERO PUSH2 0xAF7 JUMPI PUSH2 0xAF6 PUSH2 0x9F7 JUMP JUMPDEST JUMPDEST PUSH2 0xB02 DUP5 DUP3 DUP6 PUSH2 0xAB9 JUMP JUMPDEST POP SWAP4 SWAP3 POP POP POP JUMP JUMPDEST PUSH1 0x0 DUP3 PUSH1 0x1F DUP4 ADD SLT PUSH2 0xB1F JUMPI PUSH2 0xB1E PUSH2 0x9F2 JUMP JUMPDEST JUMPDEST DUP2 CALLDATALOAD PUSH2 0xB2F DUP5 DUP3 PUSH1 0x20 DUP7 ADD PUSH2 0xAC8 JUMP JUMPDEST SWAP2 POP POP SWAP3 SWAP2 POP POP JUMP JUMPDEST PUSH1 0x0 DUP1 PUSH1 0x0 DUP1 PUSH1 0x80 DUP6 DUP8 SUB SLT ISZERO PUSH2 0xB52 JUMPI PUSH2 0xB51 PUSH2 0x95B JUMP JUMPDEST JUMPDEST PUSH1 0x0 PUSH2 0xB60 DUP8 DUP3 DUP9 ADD PUSH2 0x986 JUMP JUMPDEST SWAP5 POP POP PUSH1 0x20 DUP6 ADD CALLDATALOAD PUSH8 0xFFFFFFFFFFFFFFFF DUP2 GT ISZERO PUSH2 0xB81 JUMPI PUSH2 0xB80 PUSH2 0x960 JUMP JUMPDEST JUMPDEST PUSH2 0xB8D DUP8 DUP3 DUP9 ADD PUSH2 0xB0A JUMP JUMPDEST SWAP4 POP POP PUSH1 0x40 DUP6 ADD CALLDATALOAD PUSH8 0xFFFFFFFFFFFFFFFF DUP2 GT ISZERO PUSH2 0xBAE JUMPI PUSH2 0xBAD PUSH2 0x960 JUMP JUMPDEST JUMPDEST PUSH2 0xBBA DUP8 DUP3 DUP9 ADD PUSH2 0xB0A JUMP JUMPDEST SWAP3 POP POP PUSH1 0x60 PUSH2 0xBCB DUP8 DUP3 DUP9 ADD PUSH2 0x986 JUMP JUMPDEST SWAP2 POP POP SWAP3 SWAP6 SWAP2 SWAP5 POP SWAP3 POP JUMP JUMPDEST PUSH1 0x0 DUP1 PUSH1 0x40 DUP4 DUP6 SUB SLT ISZERO PUSH2 0xBEE JUMPI PUSH2 0xBED PUSH2 0x95B JUMP JUMPDEST JUMPDEST PUSH1 0x0 PUSH2 0xBFC DUP6 DUP3 DUP7 ADD PUSH2 0x986 JUMP JUMPDEST SWAP3 POP POP PUSH1 0x20 PUSH2 0xC0D DUP6 DUP3 DUP7 ADD PUSH2 0x986 JUMP JUMPDEST SWAP2 POP POP SWAP3 POP SWAP3 SWAP1 POP JUMP JUMPDEST PUSH1 0x0 PUSH20 0xFFFFFFFFFFFFFFFFFFFFFFFFFFFFFFFFFFFFFFFF DUP3 AND SWAP1 POP SWAP2 SWAP1 POP JUMP JUMPDEST PUSH1 0x0 PUSH2 0xC42 DUP3 PUSH2 0xC17 JUMP JUMPDEST SWAP1 POP SWAP2 SWAP1 POP JUMP JUMPDEST PUSH2 0xC52 DUP2 PUSH2 0xC37 JUMP JUMPDEST DUP3 MSTORE POP POP JUMP JUMPDEST PUSH1 0x0 DUP2 MLOAD SWAP1 POP SWAP2 SWAP1 POP JUMP JUMPDEST PUSH1 0x0 DUP3 DUP3 MSTORE PUSH1 0x20 DUP3 ADD SWAP1 POP SWAP3 SWAP2 POP POP JUMP JUMPDEST PUSH1 0x0 JUMPDEST DUP4 DUP2 LT ISZERO PUSH2 0xC92 JUMPI DUP1 DUP3 ADD MLOAD DUP2 DUP5 ADD MSTORE PUSH1 0x20 DUP2 ADD SWAP1 POP PUSH2 0xC77 JUMP JUMPDEST PUSH1 0x0 DUP5 DUP5 ADD MSTORE POP POP POP POP JUMP JUMPDEST PUSH1 0x0 PUSH2 0xCA9 DUP3 PUSH2 0xC58 JUMP JUMPDEST PUSH2 0xCB3 DUP2 DUP6 PUSH2 0xC63 JUMP JUMPDEST SWAP4 POP PUSH2 0xCC3 DUP2 DUP6 PUSH1 0x20 DUP7 ADD PUSH2 0xC74 JUMP JUMPDEST PUSH2 0xCCC DUP2 PUSH2 0x9FC JUMP JUMPDEST DUP5 ADD SWAP2 POP POP SWAP3 SWAP2 POP POP JUMP JUMPDEST PUSH1 0x0 PUSH1 0x80 DUP3 ADD SWAP1 POP PUSH2 0xCEC PUSH1 0x0 DUP4 ADD DUP8 PUSH2 0xC49 JUMP JUMPDEST DUP2 DUP2 SUB PUSH1 0x20 DUP4 ADD MSTORE PUSH2 0xCFE DUP2 DUP7 PUSH2 0xC9E JUMP JUMPDEST SWAP1 POP DUP2 DUP2 SUB PUSH1 0x40 DUP4 ADD MSTORE PUSH2 0xD12 DUP2 DUP6 PUSH2 0xC9E JUMP JUMPDEST SWAP1 POP PUSH2 0xD21 PUSH1 0x60 DUP4 ADD DUP5 PUSH2 0x9C8 JUMP JUMPDEST SWAP6 SWAP5 POP POP POP POP POP JUMP JUMPDEST PUSH1 0x0 DUP2 ISZERO ISZERO SWAP1 POP SWAP2 SWAP1 POP JUMP JUMPDEST PUSH2 0xD3F DUP2 PUSH2 0xD2A JUMP JUMPDEST DUP3 MSTORE POP POP JUMP JUMPDEST PUSH1 0x0 PUSH1 0xA0 DUP3 ADD SWAP1 POP PUSH2 0xD5A PUSH1 0x0 DUP4 ADD DUP9 PUSH2 0x9C8 JUMP JUMPDEST DUP2 DUP2 SUB PUSH1 0x20 DUP4 ADD MSTORE PUSH2 0xD6C DUP2 DUP8 PUSH2 0xC9E JUMP JUMPDEST SWAP1 POP DUP2 DUP2 SUB PUSH1 0x40 DUP4 ADD MSTORE PUSH2 0xD80 DUP2 DUP7 PUSH2 0xC9E JUMP JUMPDEST SWAP1 POP PUSH2 0xD8F PUSH1 0x60 DUP4 ADD DUP6 PUSH2 0xD36 JUMP JUMPDEST PUSH2 0xD9C PUSH1 0x80 DUP4 ADD DUP5 PUSH2 0xD36 JUMP JUMPDEST SWAP7 SWAP6 POP POP POP POP POP POP JUMP JUMPDEST PUSH1 0x0 PUSH1 0x20 DUP3 ADD SWAP1 POP PUSH2 0xDBB PUSH1 0x0 DUP4 ADD DUP5 PUSH2 0xC49 JUMP JUMPDEST SWAP3 SWAP2 POP POP JUMP JUMPDEST PUSH1 0x0 DUP1 PUSH1 0x0 PUSH1 0x60 DUP5 DUP7 SUB SLT ISZERO PUSH2 0xDDA JUMPI PUSH2 0xDD9 PUSH2 0x95B JUMP JUMPDEST JUMPDEST PUSH1 0x0 PUSH2 0xDE8 DUP7 DUP3 DUP8 ADD PUSH2 0x986 JUMP JUMPDEST SWAP4 POP POP PUSH1 0x20 DUP5 ADD CALLDATALOAD PUSH8 0xFFFFFFFFFFFFFFFF DUP2 GT ISZERO PUSH2 0xE09 JUMPI PUSH2 0xE08 PUSH2 0x960 JUMP JUMPDEST JUMPDEST PUSH2 0xE15 DUP7 DUP3 DUP8 ADD PUSH2 0xB0A JUMP JUMPDEST SWAP3 POP POP PUSH1 0x40 DUP5 ADD CALLDATALOAD PUSH8 0xFFFFFFFFFFFFFFFF DUP2 GT ISZERO PUSH2 0xE36 JUMPI PUSH2 0xE35 PUSH2 0x960 JUMP JUMPDEST JUMPDEST PUSH2 0xE42 DUP7 DUP3 DUP8 ADD PUSH2 0xB0A JUMP JUMPDEST SWAP2 POP POP SWAP3 POP SWAP3 POP SWAP3 JUMP JUMPDEST PUSH32 0x526F756E6420636C6F7365640000000000000000000000000000000000000000 PUSH1 0x0 DUP3 ADD MSTORE POP JUMP JUMPDEST PUSH1 0x0 PUSH2 0xE82 PUSH1 0xC DUP4 PUSH2 0xC63 JUMP JUMPDEST SWAP2 POP PUSH2 0xE8D DUP3 PUSH2 0xE4C JUMP JUMPDEST PUSH1 0x20 DUP3 ADD SWAP1 POP SWAP2 SWAP1 POP JUMP JUMPDEST PUSH1 0x0 PUSH1 0x20 DUP3 ADD SWAP1 POP DUP2 DUP2 SUB PUSH1 0x0 DUP4 ADD MSTORE PUSH2 0xEB1 DUP2 PUSH2 0xE75 JUMP JUMPDEST SWAP1 POP SWAP2 SWAP1 POP JUMP JUMPDEST PUSH32 0x4E487B7100000000000000000000000000000000000000000000000000000000 PUSH1 0x0 MSTORE PUSH1 0x22 PUSH1 0x4 MSTORE PUSH1 0x24 PUSH1 0x0 REVERT JUMPDEST PUSH1 0x0 PUSH1 0x2 DUP3 DIV SWAP1 POP PUSH1 0x1 DUP3 AND DUP1 PUSH2 0xEFF JUMPI PUSH1 0x7F DUP3 AND SWAP2 POP JUMPDEST PUSH1 0x20 DUP3 LT DUP2 SUB PUSH2 0xF12 JUMPI PUSH2 0xF11 PUSH2 0xEB8 JUMP JUMPDEST JUMPDEST POP SWAP2 SWAP1 POP JUMP JUMPDEST PUSH1 0x0 DUP2 SWAP1 POP DUP2 PUSH1 0x0 MSTORE PUSH1 0x20 PUSH1 0x0 KECCAK256 SWAP1 POP SWAP2 SWAP1 POP JUMP JUMPDEST PUSH1 0x0 PUSH1 0x20 PUSH1 0x1F DUP4 ADD DIV SWAP1 POP SWAP2 SWAP1 POP JUMP JUMPDEST PUSH1 0x0 DUP3 DUP3 SHL SWAP1 POP SWAP3 SWAP2 POP POP JUMP JUMPDEST PUSH1 0x0 PUSH1 0x8 DUP4 MUL PUSH2 0xF7A PUSH32 0xFFFFFFFFFFFFFFFFFFFFFFFFFFFFFFFFFFFFFFFFFFFFFFFFFFFFFFFFFFFFFFFF DUP3 PUSH2 0xF3D JUMP JUMPDEST PUSH2 0xF84 DUP7 DUP4 PUSH2 0xF3D JUMP JUMPDEST SWAP6 POP DUP1 NOT DUP5 AND SWAP4 POP DUP1 DUP7 AND DUP5 OR SWAP3 POP POP POP SWAP4 SWAP3 POP POP POP JUMP JUMPDEST PUSH1 0x0 DUP2 SWAP1 POP SWAP2 SWAP1 POP JUMP JUMPDEST PUSH1 0x0 PUSH2 0xFC1 PUSH2 0xFBC PUSH2 0xFB7 DUP5 PUSH2 0x965 JUMP JUMPDEST PUSH2 0xF9C JUMP JUMPDEST PUSH2 0x965 JUMP JUMPDEST SWAP1 POP SWAP2 SWAP1 POP JUMP JUMPDEST PUSH1 0x0 DUP2 SWAP1 POP SWAP2 SWAP1 POP JUMP JUMPDEST PUSH2 0xFDB DUP4 PUSH2 0xFA6 JUMP JUMPDEST PUSH2 0xFEF PUSH2 0xFE7 DUP3 PUSH2 0xFC8 JUMP JUMPDEST DUP5 DUP5 SLOAD PUSH2 0xF4A JUMP JUMPDEST DUP3 SSTORE POP POP POP POP JUMP JUMPDEST PUSH1 0x0 SWAP1 JUMP JUMPDEST PUSH2 0x1004 PUSH2 0xFF7 JUMP JUMPDEST PUSH2 0x100F DUP2 DUP5 DUP5 PUSH2 0xFD2 JUMP JUMPDEST POP POP POP JUMP JUMPDEST JUMPDEST DUP2 DUP2 LT ISZERO PUSH2 0x1033 JUMPI PUSH2 0x1028 PUSH1 0x0 DUP3 PUSH2 0xFFC JUMP JUMPDEST PUSH1 0x1 DUP2 ADD SWAP1 POP PUSH2 0x1015 JUMP JUMPDEST POP POP JUMP JUMPDEST PUSH1 0x1F DUP3 GT ISZERO PUSH2 0x1078 JUMPI PUSH2 0x1049 DUP2 PUSH2 0xF18 JUMP JUMPDEST PUSH2 0x1052 DUP5 PUSH2 0xF2D JUMP JUMPDEST DUP2 ADD PUSH1 0x20 DUP6 LT ISZERO PUSH2 0x1061 JUMPI DUP2 SWAP1 POP JUMPDEST PUSH2 0x1075 PUSH2 0x106D DUP6 PUSH2 0xF2D JUMP JUMPDEST DUP4 ADD DUP3 PUSH2 0x1014 JUMP JUMPDEST POP POP JUMPDEST POP POP POP JUMP JUMPDEST PUSH1 0x0 DUP3 DUP3 SHR SWAP1 POP SWAP3 SWAP2 POP POP JUMP JUMPDEST PUSH1 0x0 PUSH2 0x109B PUSH1 0x0 NOT DUP5 PUSH1 0x8 MUL PUSH2 0x107D JUMP JUMPDEST NOT DUP1 DUP4 AND SWAP2 POP POP SWAP3 SWAP2 POP POP JUMP JUMPDEST PUSH1 0x0 PUSH2 0x10B4 DUP4 DUP4 PUSH2 0x108A JUMP JUMPDEST SWAP2 POP DUP3 PUSH1 0x2 MUL DUP3 OR SWAP1 POP SWAP3 SWAP2 POP POP JUMP JUMPDEST PUSH2 0x10CD DUP3 PUSH2 0xC58 JUMP JUMPDEST PUSH8 0xFFFFFFFFFFFFFFFF DUP2 GT ISZERO PUSH2 0x10E6 JUMPI PUSH2 0x10E5 PUSH2 0xA0D JUMP JUMPDEST JUMPDEST PUSH2 0x10F0 DUP3 SLOAD PUSH2 0xEE7 JUMP JUMPDEST PUSH2 0x10FB DUP3 DUP3 DUP6 PUSH2 0x1037 JUMP JUMPDEST PUSH1 0x0 PUSH1 0x20 SWAP1 POP PUSH1 0x1F DUP4 GT PUSH1 0x1 DUP2 EQ PUSH2 0x112E JUMPI PUSH1 0x0 DUP5 ISZERO PUSH2 0x111C JUMPI DUP3 DUP8 ADD MLOAD SWAP1 POP JUMPDEST PUSH2 0x1126 DUP6 DUP3 PUSH2 0x10A8 JUMP JUMPDEST DUP7 SSTORE POP PUSH2 0x118E JUMP JUMPDEST PUSH1 0x1F NOT DUP5 AND PUSH2 0x113C DUP7 PUSH2 0xF18 JUMP JUMPDEST PUSH1 0x0 JUMPDEST DUP3 DUP2 LT ISZERO PUSH2 0x1164 JUMPI DUP5 DUP10 ADD MLOAD DUP3 SSTORE PUSH1 0x1 DUP3 ADD SWAP2 POP PUSH1 0x20 DUP6 ADD SWAP5 POP PUSH1 0x20 DUP2 ADD SWAP1 POP PUSH2 0x113F JUMP JUMPDEST DUP7 DUP4 LT ISZERO PUSH2 0x1181 JUMPI DUP5 DUP10 ADD MLOAD PUSH2 0x117D PUSH1 0x1F DUP10 AND DUP3 PUSH2 0x108A JUMP JUMPDEST DUP4 SSTORE POP JUMPDEST PUSH1 0x1 PUSH1 0x2 DUP9 MUL ADD DUP9 SSTORE POP POP POP JUMPDEST POP POP POP POP POP POP JUMP JUMPDEST PUSH1 0x0 PUSH1 0x40 DUP3 ADD SWAP1 POP PUSH2 0x11AB PUSH1 0x0 DUP4 ADD DUP6 PUSH2 0x9C8 JUMP JUMPDEST PUSH2 0x11B8 PUSH1 0x20 DUP4 ADD DUP5 PUSH2 0xC49 JUMP JUMPDEST SWAP4 SWAP3 POP POP POP JUMP JUMPDEST PUSH32 0x4E487B7100000000000000000000000000000000000000000000000000000000 PUSH1 0x0 MSTORE PUSH1 0x32 PUSH1 0x4 MSTORE PUSH1 0x24 PUSH1 0x0 REVERT JUMPDEST PUSH1 0x0 PUSH1 0x40 DUP3 ADD SWAP1 POP PUSH2 0x1203 PUSH1 0x0 DUP4 ADD DUP6 PUSH2 0x9C8 JUMP JUMPDEST DUP2 DUP2 SUB PUSH1 0x20 DUP4 ADD MSTORE PUSH2 0x1215 DUP2 DUP5 PUSH2 0xC9E JUMP JUMPDEST SWAP1 POP SWAP4 SWAP3 POP POP POP JUMP INVALID LOG2 PUSH5 0x6970667358 0x22 SLT KECCAK256 0xFC PUSH15 0xF2D61BA6FBCD93FB7B53C4B766FC37 0xEC 0x5D LOG3 DELEGATECALL MSIZE 0x4C PUSH14 0xC1A644FF66B3B65464736F6C6343 STOP ADDMOD EQ STOP CALLER "},"methodIdentifiers":{"closeRound(uint256)":"88e01a98","getUpdate(uint256,uint256)":"6e771eb3","getUpdateCount(uint256)":"3d3377f4","owner()":"8da5cb5b","rounds(uint256)":"8c65c81f","startRound(uint256,string,string)":"fef9da2a","storeAggregated(uint256,string,string)":"a3ca69f3","submitUpdate(uint256,string,string,uint256)":"5bf94267"}}}}}